:020000040800F2
:10000000880700209D010008412900086F2600088C
:10001000D5280008750F0008F9300008000000001E
:100020000000000000000000000000005B2A000843
:10003000770F000800000000592A0008D12A0008A4
:10004000B7010008B7010008B7010008B7010008B0
:10005000B7010008B7010008B7010008B7010008A0
:10006000B7010008B7010008B7010008B701000890
:10007000B7010008B7010008B7010008B701000880
:10008000B7010008B7010008B7010008B701000870
:10009000B7010008B7010008B7010008B701000860
:1000A000B7010008752B0008B7010008B701000868
:1000B000B7010008812B0008B7010008B70100084C
:1000C000B7010008B7010008B7010008B701000830
:1000D000B701000845300008B7010008B701000863
:1000E000B7010008B7010008B7010008B701000810
:1000F0008D2B0008B7010008B7010008B701000800
:10010000B7010008B7010008B7010008B7010008EF
:10011000B7010008B7010008B7010008B7010008DF
:10012000B7010008B7010008B7010008B7010008CF
:10013000B7010008B7010008B7010008B7010008BF
:10014000B7010008B7010008B7010008B7010008AF
:10015000B7010008B7010008B7010008B70100089F
:10016000B7010008B7010008B7010008B70100088F
:10017000B7010008B7010008B7010008000000003F
:10018000B7010008B7010008DFF80CD000F0F8FC58
:1001900000480047153A00088807002006488047B5
:1001A00006480047FEE7FEE7FEE7FEE7FEE7FEE75C
:1001B000FEE7FEE7FEE7FEE7652B00088901000881
:1001C0002DE9F05F0546002092469B46884606468C
:1001D000814640241BE0284641464746224600F01F
:1001E000DAFB53465A46C01A914110D311461846BD
:1001F000224600F0C1FB2D1A67EB01084F4622464C
:100200000120002100F0B8FB17EB00094E41201E31
:10021000A4F10104DFDC484631462A464346BDE8E6
:10022000F09F002800DA4042704740EA01039B0734
:1002300003D009E008C9121F08C0042AFAD203E05B
:1002400011F8013B00F8013B521EF9D27047D2B2BF
:1002500001E000F8012B491EFBD270470022F6E7AF
:1002600010B513460A4604461946FFF7F0FF20462C
:1002700010BD00000FB400B58DB010A909900B900F
:1002800000914FF0FF300A9000200C900548069036
:10029000054807906A4609A80F9900F0A5FB0DB024
:1002A0005DF814FB050A0008230A00082DE9FF4F3A
:1002B000087881B09946FF2805D0491C2D2804D024
:1002C0000024002308E000230BE00124F9E703EBFE
:1002D000830300EB4303491C0878FF28F7D104B1DE
:1002E0005B4200200090147801462D2C01D02B2C6D
:1002F00004D1521C2D2C12D0002400940025167815
:10030000FF2E0ED00A24A0FB04C801FB04810027A5
:1003100000FB0711521C16EB0C006941EFE70124AA
:10032000EBE7994450EA01020ED00024AA4D26467C
:10033000DFF8A88200F0E3FB82468B46B9F10000AB
:1003400009DAC9F100071BE001980021C0E900119A
:1003500005B0BDE8F08F074612E0F80707D0224647
:100360002B463046414600F0E4F9064688462246D0
:100370002B461046194600F0DCF904460D467F1066
:10038000002FEAD1B9F1000F324643465046594694
:1003900002DA00F040FA01E000F0CBF9009A0AB16D
:1003A00081F00041019AC2E90001D1E72DE9FF4F38
:1003B0001F468DB0D7E901464FF0FF382E20454645
:1003C0004FF000090B90B9696D1C0E988847396A87
:1003D000824688470028F6D1BAF1FF3F0AD024F4BC
:1003E000D064002E11DDBAF12B0F08D0BAF12D0F19
:1003F0000BD102E0404611B0ABE744F48064B96928
:100400006D1C0E9888478246761E6946600501D5A8
:100410002D2000E02B208DF8000001F1010B0DF1E3
:10042000200809E0B9696D1C0E98884782460F982C
:1004300044F40074761E0560002E02DDBAF1300F20
:10044000F0D00B998A453ED144F0800406E00F9924
:10045000681CA9F1010944F400740860B9696D1CB5
:10046000761E0E98884782463028F0D02BE00B99F4
:100470008A4505D1200603D444F08004761E18E096
:10048000504602F01DFF08B30DF11301761E44F42F
:1004900000748B4508D2AAF130000BF8010B20063E
:1004A00007D5A9F1010003E0200602D409F10100FB
:1004B0008146A00502D50F99681C0860B9696D1CBA
:1004C0000E9888478246002ED1DC53E0002E51DD85
:1004D000BAF1650F02D0BAF1450F4BD1A00549D54D
:1004E000B9696D1C24F44074761E0E9888478246C4
:1004F000002E0CDD2B2804D0BAF12D0F07D144F4C7
:100500008074B9696D1C0E9888478246761EE00596
:1005100001D52D2100E02B2108F8011BCDF82C80FE
:1005200021E00DF12901761E44F4007488450CD2B7
:10053000AAF1300010F0FF0088F8000002D10B99FA
:10054000884509D908F1010806E0E00501D52448ED
:1005500001E042F20F708146B9696D1C0E98884720
:1005600082460F980560002E04DD504602F0A8FE7A
:100570000028D6D1F9690E988847FF208BF8000033
:1005800088F800000020069007904B466A4608A9AC
:1005900006A8FFF78BFEA00502D46FF001002AE742
:1005A00014F0240F0AD0E00714D1DDE906123868F0
:1005B000031D3B600068C0E900120BE0DDE90601A5
:1005C00000F0C1FA0146E00704D13868021D3A6024
:1005D0000068016028460EE7000024400000F03F5C
:1005E000F1D8FFFF2DE9FE4F804681EA0300C00FDE
:1005F0000C46009021F0004123F00045B8EB0200CA
:10060000A94105D24046214690461C460B4602466B
:1006100023F00040104347D0270DC7F30A00C3F36F
:100620000A510290401A019040286BDAC3F313007C
:1006300040F4801B0098924620B10023D2EB030ABD
:1006400063EB0B0B01985946C0F14002504600F095
:1006500093F906460D4650465946019A00F0ABF90B
:1006600010EB08006141002487EA115284EAE77325
:100670001A4340D0009A62B3019A012A4FEA075206
:1006800015DC001B61EB02014FF0004202EA075249
:10069000CDE90042001C41F5801132462B4600F0A6
:1006A000E0F903B0BDE8F08F40462146F9E7001BB2
:1006B00061EB0201001C41F5801300185B4120181A
:1006C000A2F5001747EB030140EAD570B6196D415A
:1006D00011E06D084FEA360645EAC0754FEA075249
:1006E000001B61EB0201001C41F5801149084FEA33
:1006F00030000019514132462B4603B0BDE8F04F9F
:1007000000F0A0B90098012240000023D0EB0202C3
:1007100063EBE073009821464FEAE074B8EB000009
:1007200061EB0401E9E783F000435BE781F00041FE
:1007300058E72DE9FE4F81EA030404F0004421F05C
:10074000004100944FF0000B23F0004350EA0104F5
:100750005ED052EA03045BD0C3F30A54C1F30A55D6
:100760002C44A4F2F3340194A0FB0254C1F313010E
:1007700041F48011C3F3130343F4801301FB0244DB
:1007800000FB034E840A970A44EA815447EA8357E0
:10079000A4FB076802958D0A05FB07854FEA932C99
:1007A00004FB0C542705029D4FEA065847EA16370A
:1007B000B5EB08056EEB070C870E920E47EA811722
:1007C00042EA8312A7FB0201B6EB0B0164EB0004C3
:1007D0002B0D43EA0C335E1844EB1C50DA465146AD
:1007E000E7FB0201C5F313044FEA0B3343EA14534A
:1007F0004FEA0432019C43EA0603A4F10C0402947C
:10080000009CCDE900B400F02CF903B0BDE8F08FF6
:1008100000200146F9E72DE9F04D81EA030404F0D8
:10082000004B21F0004514464FF0000A23F0004130
:1008300050EA050220D054EA01021DD0C5F30A5740
:100840000246C5F31303C1F31300C1F30A5640F483
:10085000801543F48013A7EB0608101BD64608F258
:10086000FD3873EB050002D308F1010801E092188E
:100870005B41B8F1000F03DA00200146BDE8F08DBE
:1008800000204FF48011064684460EE0171B73EBE0
:10089000050705D3121B63EB050306434CEA010C65
:1008A00049084FEA300092185B4150EA0107EDD148
:1008B00052EA030012D082EA040083EA05010843E9
:1008C00005D0101BAB4106D20122002306E0002216
:1008D0004FF0004302E06FF0010253101AEB0600E4
:1008E0004CEB085110EB0A0041EB0B01BDE8F04D59
:1008F00000F0A8B800F0004230F000400AD0C10D6E
:1009000001F56071C0F3160042EA0151C2084007C8
:1009100011437047002001467047000030B5041EA7
:1009200071F1000404DB4FF00044404264EB01012C
:10093000141E73F1000405DB1C464FF000435242C5
:1009400063EB0403994208BF904230BD30B50B46BB
:10095000014600202022012409E021FA02F59D42EF
:1009600005D303FA02F5491B04FA02F52844151EC3
:10097000A2F10102F1DC30BD202A04DB203A00FAAA
:1009800002F1002070479140C2F1200320FA03F3E6
:10099000194390407047202A04DB203A21FA02F0E4
:1009A0000021704721FA02F3D040C2F120029140A9
:1009B000084319467047202A06DBCB17203A41FA34
:1009C00002F043EAE07306E041FA02F3D040C2F1DC
:1009D0002002914008431946704700000268114404
:1009E0001378016018467047D16004495161044989
:1009F000116200211161114600F0DAB8DD0900082A
:100A0000A50B0008426842B1016811F8013B23B10F
:100A1000521EC0E90012184670470121C160881EAD
:100A2000704742685AB1C368016843B983688B4212
:100A300005D0491E521CC0E90012002070474FF03B
:100A4000FF30704710B5141E73F1000408DA401C23
:100A500041F1000192185B411A4301D120F00100DD
:100A600010BD2DE9F04D92469B4611B1B1FA81F2CD
:100A700002E0B0FA80F220329046FFF77DFF044694
:100A80000F4640EA0A0041EA0B0153465A46084322
:100A900013D0114653EA010019D0C8F14002504664
:100AA000FFF779FF05460E46504659464246FFF786
:100AB00063FF084305D0012004E020463946BDE825
:100AC000F08D0020054346EAE0762C4337430A9830
:100AD0006305E40AA0EB08000022FD0A44EA47543B
:100AE0000A3002D500200146E9E7010510196941E5
:100AF000DDE9084500196941BDE8F04DA2E70EB5F2
:100B000040F2334202920022CDE900221346FFF761
:100B1000A8FF03B000BDC1F30A52C1F3130140F2B4
:100B2000FF3341F480119A4202DA002001467047F7
:100B300040F233439A42A2F2334202DC5242FFF7C0
:100B40002ABFFFF719BF01F0004330B421F0004184
:100B500050EA010206D00A0DA2F56072C1F313013A
:100B6000002A02DC30BC00207047440F44EAC10474
:100B7000C100E01830BC00EBC25000F0AFB900007B
:100B8000064C074D06E0E06840F0010394E80700DA
:100B900098471034AC42F6D3FFF7FAFA743B0008DA
:100BA000943B0008C0B24FF4F05100F0CFB9000000
:100BB0002DE9F34F8BB04FF0000801F10C000C460B
:100BC0004FF0010B46460DF1080A019062690121C0
:100BD0000198904705002DD0252D2CD0216A8847FB
:100BE000C0B16269012101989047216A88470028B5
:100BF000F7D1411E62690198904700E0761CA16917
:100C00000B988847216A88470028F7D1E1690B983B
:100C10008847DBE7A1690B9888470746A84201D1BE
:100C2000761CD3E7E1690B9888477F1C02D1B8F1A5
:100C3000000F6FD046E1002762693D4639460198B2
:100C400090472A2804D16269012101989047012523
:100C5000DFF884926269012101989047A0F1300188
:100C60000A290AD24F45E5DC07EB870100EB410773
:100C7000303FDFD445F01005ECE7E90601D46FF012
:100C800000476C280AD04C2814D0682815D06A2850
:100C90000DD074281CD07A281AD01DE06269012179
:100CA000019890476C2802D045F0040514E045F007
:100CB00002050DE045F020050AE062690121019876
:100CC0009047682802D045F0080505E045F4006526
:100CD0006269012101989047C4E9015765283DD018
:100CE00019DC58287AD00CDC452837D004DC2528BC
:100CF00026D0412831D131E046282FD047282CD1A9
:100D00002CE05B2877D0612828D063287CD0642829
:100D100023D15AE0D0E06F2848D008DC66281DD0E7
:100D200067281BD0692821D06E2816D127E07028AB
:100D300045D0732868D0752847D078280DD14DE06C
:100D4000A1690B988847054625283FF469AFE169FA
:100D50000B9888476D1C3FF46AAFB3E023466A46A0
:100D60006FF001000B99FFF721FB9EE045F040007A
:100D70006060A80723464FF0000236D43EE0E80743
:100D80007FF447AF2068011D21600068290501D567
:100D900006701BE7290701D5068017E7A90703D5C9
:100DA000F117C0E9006111E706600FE745F0400068
:100DB0006060A80723464FF0080216D41EE040F6F4
:100DC0000E0125EA0100606016E045F04000606019
:100DD000A80723464FF00A0207D40FE045F0400071
:100DE0006060A80708D5234610226FF001000B9918
:100DF000AFF3008059E007E0234610226FF00100B6
:100E00000B99AFF3008050E04FF000094F464B467E
:100E1000632802D05B2806D040E0E80601D4012018
:100E2000A06001273AE062690121019890475E289D
:100E300005D14FF00109626949460198904721693F
:100E400039B900210A46534643F82120491C082994
:100E5000FADBB0B3216969B9C11700EBD162531154
:100E60000AEB830122F01F02821A01200B689040D6
:100E700003430B6062690121019890475D28E8D126
:100E8000B9F1000F09D00020514651F82020D2437B
:100E900041F82020401C0828F7DB02AB22460097CF
:100EA0006FF001000B99AFF3008000280CDA401CB2
:100EB00008D1BBF1000F05D04FF0FF300DB0BDE8F9
:100EC000F08FFFE74046F9E7E90701D108F1010893
:100ED00006444FF0000B79E6CCCCCC0C0029A8BF1F
:100EE0007047401C490008BF20F00100704710B453
:100EF000B0FA80FC00FA0CF050EA010404BF10BC08
:100F0000704749B1CCF1200421FA04F411FA0CF134
:100F100018BF012121430843A3EB0C01CB1D4FEA6D
:100F200000614FEA102042BF002010BC704700EB68
:100F3000C35010440029A4BF10BC7047401C490096
:100F400008BF20F0010010BC704700007F2801D9C5
:100F5000002208E0064A02EB5002C007127800D1D6
:100F6000120902F00F020120904008407047000073
:100F7000343B0008FEE7704710B50C460122891C7F
:100F800001F04EFBD4F80C01002802D10A20C4F86D
:100F90000C0110BD72B6FEE72DE9F0410446876DE5
:100FA00000F050F9064694F835000025022806D0D6
:100FB0008020606584F834500120BDE8F08120680D
:100FC000016821F0160101602068416921F080016B
:100FD0004161206C08B9A06C20B12068016821F043
:100FE000080101602068016821F0010101600BE047
:100FF00000F028F9801B052806D92020606504F838
:10100000345F03206070D8E720680068C007EFD124
:1010100094F85C103F208840B86004F8345F0120E9
:1010200060700020C9E790F83510022903D08021B4
:10103000416501207047052180F83510006801687E
:1010400021F0010101600020704700002DE9F84FF8
:10105000DFF8B8A1002201250AF1040B03264FF0A6
:101060000F090BF1040E00BF0B6805FA02F42340D0
:10107000A3426FD10F7907F00307012F01D0022F90
:1010800016D187684FEA420806FA08FC27EA0C07DF
:10109000D1F80CC00CFA08FC4CEA070CC0F808C0E8
:1010A0004768A7430C79C4F3001494403C43446060
:1010B0000C79E443A4070AD0C4684FEA420C06FA4C
:1010C0000CF7BC438F6807FA0CF72743C7600C790D
:1010D00004F00304022C12D1D40800EB840CDCF8D9
:1010E00020405707FF0E09FA07F824EA0804D1F850
:1010F000108008FA07F848EA0408CCF82080046851
:101100004FEA420C06FA0CF7BC430F7907F00307CD
:1011100007FA0CF7274307604C68E40070D53C4C95
:10112000276847F480472760246822F0030704F407
:1011300080440094374C07EB040CDCF80848970710
:101140004FEA177809FA08F7BC43334FB84202D187
:10115000002724E054E0314FB84201D101271EE0BE
:101160002F4FB84201D1022719E02E4FB84201D1CA
:10117000032714E02C4FB84201D104270FE02B4F76
:10118000B84201D105270AE0294FB84201D106270C
:1011900005E0284FB84201D1072700E0082707FAE9
:1011A00008F72743CCF80878DAF800405746D1F81A
:1011B00004C09C435FEACC3C00D51C433C60DBF898
:1011C00000405F46D1F804C09C435FEA8C3C00D5E8
:1011D0001C433C60DEF800407746D1F804C09C43D5
:1011E0005FEACC2C00D51C433C60084F0C373C68B0
:1011F000D1F804C09C435FEA8C2C00D51C433C60B2
:10120000521C102AFFF430AFBDE8F88F003C0140BB
:101210004438024000300140000002400004024017
:1012200000080240000C024000100240001402407E
:1012300000180240001C02400AB181617047090495
:10124000FBE7000001488068704700002000002094
:1012500002488168027811448160704720000020B4
:101260000B4810B5016841F400710160016841F458
:1012700080610160016841F480710160032000F029
:1012800071F8032000F006F800F024F8002010BDEB
:10129000003C024070B50D4D04464FF47A71287839
:1012A000B1FBF0F00A490968B1FBF0F000F00EFB69
:1012B00048B9102C07D200222146501E00F032F807
:1012C00000206C6070BD012070BD00002000002077
:1012D0002C0000200B4882B0016841F4804101607D
:1012E000006800F4804000900648001F016841F04B
:1012F00080510160006800F080500090052002B02D
:1013000000F030B844380240002809DB00F01F022A
:10131000012191404009800000F1E020C0F8001157
:1013200070470000F0B40E4B1B680C46C3F3022359
:10133000C3F10705042D00D90425191D072901D281
:10134000002300E0DB1E012606FA05F1491E2140BC
:1013500099409E40761E16403143F0BC01F0DEBE3F
:101360000CED00E0064900F0070208684FF6FF03A5
:10137000184040EA0220034A10430860704700000A
:101380000CED00E00000FA052DE9F0470E460500DF
:1013900065D0DFF81481D8F80000F7B200F007003C
:1013A000B04207D288F80070D8F8000000F00700BB
:1013B000B04254D128683D4C810712D5400703D56F
:1013C000206840F4E05020602878000703D52068AA
:1013D00040F4604020602068A96820F0F0000843D5
:1013E00020602878C0072DD0304968680839012866
:1013F00012D0022813D0032811D0096889070029C8
:101400002DDA216821F0030101432160FFF71AFF63
:10141000814641F2883A0EE009688903EFE70968DE
:101420008901ECE7FFF70EFFA0EB0901514502D956
:101430000320BDE8F0872068696800F00C00B0EB7D
:10144000810FEFD1D8F80010404601F00701B142FA
:1014500007D90770006800F00700B04201D00120F2
:10146000E7E72878400705D52068E96820F4E050D0
:10147000084320602878000706D52068296920F4F1
:10148000604040EAC100206000F038F82168084A56
:10149000C1F30311515CC840064908600648006862
:1014A000FFF7F8FE0020C4E7003C02400838024085
:1014B0001C3B00082C0000202400002004480549A3
:1014C00000680968044AC1F38221515CC840704732
:1014D0002C000020083802402C3B00080448054935
:1014E00000680968044AC1F34231515CC840704742
:1014F0002C000020083802402C3B0008154810B58D
:10150000006810F00C02144813D01449042A0FD0BC
:10151000082A0ED10F4C241F2268236802F03F02D4
:101520005B0207D52068C0F38810A0FB010106E02C
:10153000084610BD2168C1F38811A1FB00010023FA
:10154000FEF73EFE2168C1F30141491C4900B0FB92
:10155000F1F010BD083802400024F40040787D010D
:101560002DE9F84F04006ED02078DFF84C93C007C7
:10157000A9F104054AD009F104000168C1F3810111
:10158000012908D00068C0F3810002280AD1D9F8E7
:101590000000400206D52868800337D5606800281F
:1015A000E1D033E06068B0F5803F10D0B0F5A02FF7
:1015B000286810D020F480302860286820F480202B
:1015C00028606068A8B1FFF73DFE06460DE0286878
:1015D00040F48030F4E740F480202860F7E700BF53
:1015E000FFF730FE801B642873D828688003F7D586
:1015F0000CE0FFF727FE064605E000BFFFF722FEDE
:10160000801B6428F0D828688003F7D42078DFF89E
:10161000AC8280074FF0000A3ED5A748001D016844
:1016200011F00C0F08D00068C0F3810002280BD124
:10163000D9F80000400207D42868800716D5E06872
:10164000012800D112E033E1E068B8B10120C8F808
:101650000000FFF7F7FD064605E000BFFFF7F2FDCB
:10166000801B0228C0D828688007F7D52868216920
:1016700020F0F80040EAC10028600DE0C8F800A0A2
:10168000FFF7E0FD064604E0FFF7DCFD801B0228C3
:101690001FD828688007F7D42078000722D5864F06
:1016A00087486169703771B101210160FFF7CAFD98
:1016B000064604E0FFF7C6FD801B022809D83868FB
:1016C0008007F7D50EE0C0F800A0FFF7BBFD064687
:1016D00005E082E0FFF7B6FD801B02287DD8386860
:1016E0008007F7D42078400768D5DFF8CCB1002711
:1016F0000BF13C0BDBF80000C0000BD4DBF8001052
:1017000041F08051CBF80010DBF80000012700F019
:10171000805000906B4E3068C00510D4306840F4A3
:1017200080703060FFF78EFD009005E0FFF78AFDC6
:101730000099401A022850D83068C005F6D55E4E90
:10174000A0686C3601280FD00528306810D020F032
:1017500001003060306820F004003060A068B8B14B
:10176000FFF770FD00900FE0306840F00100F4E7F3
:1017700040F004003060F7E7FFF764FD0099411A7C
:1017800041F28830814266D830688007F4D50EE097
:10179000FFF758FD009007E0FFF754FD0099411A4C
:1017A00041F28830814256D830688007F4D42FB196
:1017B000DBF8001021F08051CBF80010A069C8B30D
:1017C0003D49091D0968C1F3810102294AD0022857
:1017D000504607D0C8F8600000E03CE0FFF732FD5B
:1017E00004463BE04746C8F86000FFF72BFD06467D
:1017F00005E000BFFFF726FD801B02282BD82868D4
:101800008001F7D4D4E907010843A16A2E4A4908A8
:1018100002EB0141626A41EA8211084394F82C10FC
:1018200040EA0161C9F8001001203866FFF70AFD9F
:10183000044606E03EE000BFFFF704FD001B02285F
:1018400009D828688001F7D534E000BFFFF7FAFC1B
:10185000001B022802D90320BDE8F88F2868800108
:10186000F4D427E00128F7D0D9F80000E26900F4A9
:10187000800191421CD1226A00F03F01914217D1B0
:1018800047F6C071626A0140B1EB821F10D1A26AB3
:101890004FF0FF3300F4403103EB5202B1EB024F43
:1018A00006D194F82C1000F07060B0EB016F01D0FD
:1018B0000120D1E70020CFE7043802400000474272
:1018C000800E4742007000400000FFFF10B5401E30
:1018D000B0F1807F01D3012010BD4FF0E0246061A2
:1018E0000F21601701F01AFC0020A0610720206181
:1018F000002010BD7047704710B590F83C20012AB9
:1019000022D0012280F83C20CA688C6822F4407200
:1019100022434C6822F4806222430C6822F4006265
:1019200022430C6922F4805222434C6922F4005273
:101930002243C969002322F480420A4301684A64B1
:1019400080F83C30002010BD022010BD70B590F82A
:101950003C20012A32D0012480F83C40022280F849
:101960003D2003685A689D6822F070060A68324379
:101970005A60134B02689A4214D0B2F1804F11D0D2
:10198000104B9A420ED0104B9A420BD00F4B9A42FA
:1019900008D00F4B9A4205D00E4B9A4202D00E4B04
:1019A0009A4204D1496825F080031943916080F878
:1019B0003D40002180F83C10084670BD022070BDFB
:1019C000000001400004004000080040000C0040FE
:1019D00000040140004001400018004010B5040020
:1019E00003D094F83D0010B107E0012010BD0020A5
:1019F00084F83C00204600F01FF8022084F83D00E7
:101A0000211D206801F0D0F8012084F8460084F8F8
:101A10003E0084F83F0084F8400084F8410084F8D8
:101A2000420084F8430084F8440084F8450084F8B8
:101A30003D00002010BD000008B500680B49884239
:101A400012D10B48016841F0800101600068012259
:101A500000F08000009011462C20FFF763FCBDE8E9
:101A600008402C20FFF750BC08BD0000001C0040BF
:101A70004038024090F83D10012901D00120704704
:101A8000022180F83D100168CA6842F00102CA6074
:101A900000681149884214D0B0F1804F11D00F492D
:101AA00088420ED00E4988420BD00E49884208D099
:101AB0000D49884205D00D49884202D00C49884220
:101AC00004D1816801F00701062903D0016841F0C3
:101AD0000101016000207047000001400004004047
:101AE00000080040000C004000040140004001409C
:101AF000001800402DE9F0410D46040003D094F891
:101B00003D0018B108E00120BDE8F081002084F814
:101B10003C00204600F040F8022084F83D00206898
:101B2000816844F2070291438160211D206801F021
:101B30003BF8226890689169166A2B68AF69034385
:101B400040F20330814341EA0721A868EF69084366
:101B50004FF6FC418843E96840EA072001432869C1
:101B60002F6A000140EA0730084369686D6926F072
:101B7000AA0646EA0515294393602268906154F845
:101B8000460B0162012004F81F09E0752076E0761B
:101B90002077A0750020B7E710B586B00446142161
:101BA0006846FEF75BFB2268294C00212948022386
:101BB000A24224D1274A1432146844F0010414606C
:101BC000126802F001020592026842F010020260FF
:101BD000006800F0100005904FF420600090CDE9FF
:101BE00001310120CDE9031069461B48FFF72EFAA9
:101BF000012200211920FFF795FB192024E0174C42
:101C0000A24223D1134A1032146844F00204146033
:101C1000126802F002020592026842F001020260BC
:101C2000006800F001000590C0200090CDE901316E
:101C3000CDE9031369460A48FFF708FA012200219B
:101C40001D20FFF76FFB1D20FFF75EFB06B010BDE8
:101C50000000014030380240001002400004004003
:101C60000000024070B590F83E60044690F83F5086
:101C700090F8423090F84320022021B104290ED080
:101C8000012E1BD114E0012E18D1012B16D184F89E
:101C90003E0084F8420001220021206820E0012D4E
:101CA0000CD1012A0AD184F83F0084F8430014E0E3
:101CB000012D03D1012B01D1012A01D0012070BDDA
:101CC00084F83E0084F83F0084F8420084F8430022
:101CD00001220021206800F0CBFF012204212068AE
:101CE00000F0C6FF2068016841F00101016000209A
:101CF00070BD704770B50446006801694FF000057B
:101D0000C943890715D4C168C943890711D4E91E9D
:101D1000016101202077206880698007204602D079
:101D2000FFF7E7FF04E000F0C3F8204600F070F989
:101D3000257720680169C943490717D4C168C94399
:101D4000490713D46FF00401016102202077206855
:101D5000806910F4407F204602D0FFF7CAFF04E0FC
:101D600000F0A6F8204600F053F9257720680169B5
:101D7000C943090716D4C168C943090712D46FF0D3
:101D800008010161042020772068C069800720468F
:101D900002D0FFF7AEFF04E000F08AF8204600F022
:101DA00037F9257720680169C943C90617D4C16886
:101DB000C943C90613D46FF01001016108202077D0
:101DC0002068C06910F4407F204602D0FFF791FFE1
:101DD00004E000F06DF8204600F01AF9257720683D
:101DE0000169C943C90708D1C168C943C90704D1FA
:101DF000891E0161204600F071F920680169C9431C
:101E0000090609D4C168C943090605D46FF08001E9
:101E100001612046FFF76EFD20680169C94349064C
:101E200009D4C168C943490605D46FF04001016176
:101E3000204600F079FA20680169C94389060BD46D
:101E4000C168C943890607D46FF0200101612046AB
:101E5000BDE87040FFF74FBD70BD000010B586B003
:101E6000044614216846FEF7F9F90E4920688842B5
:101E700015D10D480021026842F00402026000689A
:101E800000F004000590C02000900220CDE901017F
:101E90000320CDE9031069460448FFF7D7F806B0E0
:101EA00010BD00000004014030380240000802402C
:101EB000704770B5044690F83C000D4601280AD0E2
:101EC000012084F83C0042B1042A18D0082A2AD004
:101ED0000C2A4DD139E0022070BD206800F0D6FEFA
:101EE0002068816941F0080181612068816921F0E1
:101EF00004018161206881692A69114311E0206829
:101F000000F0F4FE2068816941F40061816120687D
:101F1000816921F480618161206881692A6941EACF
:101F20000221816124E0206800F016FF2068C16969
:101F300041F00801C1612068C16921F00401C1615B
:101F40002068C1692A69114311E0206800F038FF58
:101F50002068C16941F40061C1612068C16921F450
:101F60008061C1612068C1692A6941EA0221C161B9
:101F7000002084F83C0070BD10B5040003D094F834
:101F80003D0010B107E0012010BD002084F83C00A6
:101F9000204600F01FF8022084F83D00211D206833
:101FA00000F002FE012084F8460084F83E0084F828
:101FB0003F0084F8400084F8410084F8420084F82F
:101FC000430084F8440084F8450084F83D00002074
:101FD00010BD000008B500680B49884212D10B48BB
:101FE000016841F0020101600068012200F0020076
:101FF000009011462C20FFF795F9BDE808402C20F1
:10200000FFF782B908BD00000004014044380240D7
:102010007047000010B50446022249B104290ED0D1
:10202000082913D094F84100012816D0012010BDD2
:1020300094F83E000128F9D184F83E200FE094F88E
:102040003F000128F2D184F83F2008E094F84000D6
:102050000128EBD184F8402001E084F841200122DE
:10206000206800F005FE16492068164A884201D013
:10207000904203D1436C43F4004343642068884298
:1020800013D0B0F1804F10D00F4988420DD00F49C6
:1020900088420AD00E49884207D0904205D00D49A7
:1020A000884202D00C49884204D1816801F00701BE
:1020B000062903D0016841F001010160002010BD34
:1020C00000000140000401400004004000080040FE
:1020D000000C004000400140001800402DE9F04194
:1020E00001686F486F4D704F0068704EA5F1640431
:1020F00081427DD16E496F4800F0DBFF3868416A4C
:10210000C26AA1EB52010AB231684B6ACE6AC06A58
:10211000A3EB5603B4F90C601BB2464302EB560026
:102120006060B5F90C20C96A4A4303EB520169604B
:102130002268801A00EE100AB8EEC01ADFED5E0ABF
:1021400081EE200A9FED5D1A20EE010A84ED040A5B
:102150002868081A01EE900A10EE100AF8EEE11A4B
:1021600081EEA02A62EE010AC5ED040AFEF7C2FB69
:1021700041EC100B52A053EC102B00F0BFFF606835
:102180002060686828604A484178002933D00021DF
:10219000417086304D4A4EA10646FEF76BF84B4D16
:1021A0002D1F012829D005F108024BA13046FEF76A
:1021B00061F8012830D005F10C024AA13046FEF743
:1021C00059F8012837D005F1100248A13046FEF732
:1021D00051F801280FD12869FEF78CFB41EC100B58
:1021E00044A053EC102B00F089FF95ED040A00E0A9
:1021F00030E084ED080ABDE8F0816868FEF77AFBFC
:1022000041EC100B3EA053EC102B00F077FF95ED46
:10221000010A84ED060AEEE7A868FEF76BFB41ECC5
:10222000100B3AA053EC102B00F068FF95ED020A5A
:1022300084ED050ADFE7E868FEF75CFB41EC100B74
:1022400036A053EC102B00F059FF95ED030A84EDF6
:10225000070AD0E73A6847F2305091420FD1536AEB
:10226000104964398342B1F90C1001D2491C03E0D2
:10227000536A834201D9491EA1815062BBE732688B
:102280009142B8D1536A07498342B1F90C1001D287
:10229000491C03E0536A8342EFD9491EA981ECE748
:1022A000FC02002098000020240200206C02002084
:1022B00014010020440300200000C34400803B457B
:1022C0007370656564313A25660D0A0008000020C8
:1022D0006B703A25660000007473706565643A257A
:1022E000660000006B693A25660000006B643A25C1
:1022F00066000000216B643A25660D0A00000000AC
:10230000216B703A25660D0A00000000217473707D
:102310006565643A25660D0A00000000216B693A84
:1023200025660D0A000000007047704770470000E6
:10233000F8B5026804461068D168536910F00F0FB1
:102340004FF0000554D003F0010601F490773743B5
:102350005FD0C20705D0CA0503D5226C42F0010246
:102360002264420705D5DA0703D0226C42F002024C
:102370002264820705D5DA0703D0226C42F00402FA
:102380002264020707D501F02002324303D0226CF9
:1023900042F008022264226C002A35D0800604D55F
:1023A000880602D5204600F053FD20684069216C64
:1023B000C0F3801001F008010143204625D000F051
:1023C0002FFD2068416949061BD5416921F0400174
:1023D0004161A06BA8B159490165A06BFEF723FECE
:1023E000002811D0A06B016D01B0BDE8F040084796
:1023F00083060ED58B060CD52046BDE8F84000F0CC
:1024000027BD2046FFF792FFF8BDFFF78FFF256439
:10241000F8BD266B2023012E53D1C60651D5CE061A
:102420004FD5106850680090506940062BD5A16BBD
:10243000086840680004000CEAD0A68D8642E7D9FF
:10244000E085C869B0F5807F18D0D06820F480702E
:10245000D0602068416921F0010141612068416933
:1024600021F04001416184F83E3025632068C16855
:1024700021F01001C160A06BFEF78EFDA08DE18DF3
:10248000401A81B219E0A08DE18D401A81B2E08D31
:102490000028BDD00029BBD0D06820F49070D06057
:1024A0002068426922F00102426184F83E302563CF
:1024B0002068C26822F01002C2602046FFF735FF94
:1024C000F8BD05062BD50D0629D594F83D00212829
:1024D000F6D1A068B0F5805F01D12069B0B1206A63
:1024E000411C2162216800784860E08C401E000495
:1024F000000CE084E4D12068C16821F08001C16053
:102500002068C16841F04001C160F8BD206A0088C0
:10251000C0F308005060206A801C2062E5E7400696
:10252000F3D54806F1D5D168204621F04001D160AD
:1025300084F83D3000F09AF8F8BD0000112E000834
:1025400070B5040004D094F83D00002510B106E0F9
:10255000012070BD84F83C50204600F023F8242070
:1025600084F83D002068C16821F40051C160204614
:1025700000F0C6FC2068016921F4904101612068E7
:10258000416921F02A0141612068C16841F400518C
:10259000C1602564202084F83D0084F83E000020BE
:1025A00070BD000010B586B0044614216846FDF7E2
:1025B00055FE18492068884229D117480021026831
:1025C00042F010020260006800F01000059012480E
:1025D0001438026842F001020260006800F0010055
:1025E00005904FF4C06000900220CDE90101032066
:1025F00003900720049069460848FEF727FD002253
:1026000011462520FEF78EFE2520FEF77DFE06B042
:1026100010BD00000010014044380240000002409C
:1026200090F83E30202B0ED159B152B190F83C3089
:10263000012B08D0012380F83C300023036300F015
:10264000E5BC012070470220704700000068044983
:10265000884203D10349044800F0FABC70470000E7
:102660000010014014010020440300207047FEE7E1
:1026700030B587B014216846FDF7F0FD16480024F8
:10268000016841F001010160016801F0010105915B
:10269000016841F010010160016801F0100105912D
:1026A000016841F00401016000680C4D00F0040075
:1026B000059000223C212846FEF7BEFD3C200090FC
:1026C0000120CDE901040220039069462846FEF767
:1026D000BDFC07B030BD00003038024000000240B1
:1026E0000B4810B50949016053214160002144F6AF
:1026F0002062C0E9021201618161FFF76FF90028D1
:1027000003D0BDE81040FEF745BC10BD001C0040E2
:10271000FC02002010B58CB024216846FDF79EFD18
:1027200000241648099414490A94C0E900144EF68E
:102730006021C0E902410461446184610320CDE964
:1027400000040120CDE902040494CDE9054007947A
:1027500069460A480894FFF7CDF908B1FEF71AFC5C
:10276000099409A905480A94FFF7F0F8002801D058
:10277000FEF710FC0CB010BD000001402402002048
:1027800010B58CB024216846FDF768FD002416487A
:10279000099414490A94C0E900144EF66021C0E976
:1027A0000241046184610320CDE900040120CDE9E8
:1027B00002040494CDE90540079469460A48089448
:1027C000FFF798F908B1FEF7E5FB099409A9064857
:1027D0000A94FFF7BBF8002801D0FEF7DBFB0CB032
:1027E00010BD0000000400406C02002010B592B043
:1027F00000240F941C2168461094FDF72FFD202122
:1028000007A8FDF72BFD2448224901605321C0E9A8
:10281000011442F21071C0E9031444618461FFF7AE
:10282000ABFB08B1FEF7B6FB0F940FA91A48109442
:10283000FFF78CF808B1FEF7ADFB6020CDE900048E
:102840000294039404940594002269461248069465
:10285000FFF72FFB08B1FEF79DFB042269460E48E7
:10286000FFF727FB08B1FEF795FB0794089409943E
:102870004FF400500A94CDE90B4007A906480E9486
:10288000FFF73AF808B1FEF785FB0348FFF7E6FAD1
:1028900012B010BD00040140B40200200C4810B575
:1028A0000A4901604FF4E1314160002181600C224E
:1028B000C160C0E904128161C161FFF741FE0028D7
:1028C00003D0BDE81040FEF765BB10BD001001400D
:1028D00044030020FEE700002DE9F041134F0446B9
:1028E0000D46386898461646C16841F00101C1603E
:1028F0000F480068C16841F00101C1600D48FFF751
:10290000B9F8396847F2305048620B48002100F1AD
:102910006402818100F1C803918183E870019FED19
:10292000070A80ED0B0ABDE8F081000024020020B8
:102930006C020020FC020020340000200000000097
:10294000FEE7C0ED061A80ED082A80EC030A704706
:1029500070B530EE600A04462B4D80ED030AD0EDD1
:10296000000A60EE200AC0ED070A10EE100AFDF71B
:10297000C1FF41EC100BFDF754FC9FED241B51EC03
:10298000100B53EC112BFDF7C9FF02D20020288059
:102990000BE00120288094ED050AD4ED030A94EDA4
:1029A000011A00EE810A84ED050A288894ED070AD1
:1029B00000EE900A94ED051AD4ED031AF8EE600AC1
:1029C00000EE810AD4ED040A94ED021A71EEE00AD9
:1029D00000EE810A84ED070AD4ED080AB1EE601A10
:1029E000B4EEC10AF1EE10FA02D8B0EE410A06E0E8
:1029F000B4EEE00AF1EE10FA01DBB0EE600A84ED0D
:102A0000070AC4ED041A70BD000000200000000099
:102A10000000694010B500210E48FFF7FBFA0421C1
:102A20000C48FFF7F7FA0B4800219038FFF71AF926
:102A3000084804219038FFF715F906480021483866
:102A4000FFF710F903480421BDE810404838FFF7AC
:102A500009B90000B40200207047704710B5194C46
:102A600004F11800D4ED040A94ED050AFFF770FF95
:102A700094ED0D0A1448154CB5EEC00AF1EE10FAAB
:102A80000CDDBCEEC00A006810EE101A4163012292
:102A900004212046FEF7D0FB00220DE0B1EE400AF3
:102AA0000068BCEEC00A10EE101A41630022042137
:102AB0002046FEF7C1FB01222046BDE81040082158
:102AC000FEF7BABB34000020B40200200000024030
:102AD000FEF7BEBB30B593B030216846FDF7BEFBB4
:102AE00014210CA8FDF7BAFB1C480024016841F032
:102AF00080510160006800F0805011901848016812
:102B000041F4804101600068022500F4804011908A
:102B1000012003901020009506950490CDE9074010
:102B2000A820CDE9090504200B906846FEF718FDA2
:102B300008B172B6FEE70F20CDE90C054FF48050C6
:102B4000CDE90E4002210CA81094FEF71DFC0028D0
:102B500001D072B6FEE713B030BD0000403802402D
:102B6000007000400248016841F470010160704744
:102B700088ED00E00148FFF7BDB800002402002006
:102B80000148FFF7B7B800006C02002010B50448F8
:102B9000FFF7B0F8BDE810400248FFF7ABB80000FF
:102BA000B4020020FC020020F0B50268254C264D3E
:102BB000264E274F274B4FF0804CA04209D060454E
:102BC00007D0A84205D0B04203D0B84201D0984205
:102BD00004D122F0700E4A6842EA0E02A0421BD0D5
:102BE000604519D0A84217D0B04215D0B84213D0D2
:102BF000984211D0184DA8420ED0184DA8420BD0C3
:102C0000174DA84208D0174DA84205D0164DA8422E
:102C100002D0164DA84203D122F44075CA682A4357
:102C20004D6922F080022A4302608A68C2620A6803
:102C30008262A04201D0984201D109690163012159
:102C40004161F0BD00000140000400400008004068
:102C5000000C0040000401400040014000440140DD
:102C60000048014000180040001C004000200040C7
:102C700010B501F01F030121046A99408C430462DE
:102C8000016A9A401143016210BD0000F0B5026A6A
:102C900022F001020262036A42688469124E24F043
:102CA00073050C682C4323F002058B682B430D4DF4
:102CB000A84201D0B04205D123F00807CB683B43BE
:102CC00023F00403A84201D0B04205D14D6922F49B
:102CD000407215438A692A434260846149684163AE
:102CE0000362F0BD0000014000040140F0B5026A3B
:102CF00022F010020262026A436884690D6824F4BB
:102D0000E64444EA05248D6822F0200242EA0512D6
:102D10000F4D104EA84201D0B04206D1CF6822F02C
:102D2000800242EA071222F04002A84201D0B042DB
:102D300007D14D6923F4406343EA85038D6943EA73
:102D4000850343608461496881630262F0BD0000CD
:102D50000000014000040140F0B5026A22F48072D4
:102D60000262026A4368C46922F4007224F07305A7
:102D70000C68124E2C438D6842EA05220E4DA84283
:102D800001D0B04206D1CF6822F4006242EA0722A5
:102D900022F48062A84201D0B04207D14D6923F4E9
:102DA000405343EA05138D6943EA05134360C46148
:102DB0004968C1630262F0BD0000014000040140A7
:102DC00030B5026A22F480520262046A4268C36922
:102DD0000D6823F4E64343EA05238D6824F4005488
:102DE00044EA0534084DA84202D0084DA84204D157
:102DF0004D6922F4804242EA85124260C36149680B
:102E00000164046230BD0000000001400004014084
:102E100010B5806B0021C185C184FFF787FA10BD12
:102E20000168CA6822F49072CA6001684A6922F097
:102E300001024A61016B012904D10168CA6822F0CC
:102E40001002CA60202180F83E1000210163704703
:102E500010B5044690F83E00222801D0022010BD93
:102E6000A1684FF48052914201D1206920B1A06A3B
:102E700091421BD049B10AE02168A06A4968C1F3B8
:102E800008010180A06A801C08E0216971B12168F5
:102E9000496801F07F010170A06A401CA062E08DCA
:102EA000401E0004000CE08503D01CE02168496846
:102EB000F1E72068C16821F02001C1602068C16885
:102EC00021F48071C1602068416921F001014161F4
:102ED000202084F83E00206B012806D02046FFF712
:102EE000B5FB00202063002010BD2068C16821F0E0
:102EF0001001C160A18D2046FFF717FAF1E700002D
:102F000070B5044600680169E26821F4405111433C
:102F100001612169A068E2690843616911430843BE
:102F20002168CA6849F20C639A430243CA60206868
:102F30004169A26921F4407111434161314920681E
:102F4000884202D03049884202D1FEF7C7FA01E038
:102F5000FEF7B4FAE2690023192164253226B2F59E
:102F6000004F626828D0A0FB0101930F9200FDF78B
:102F700027F90146B0FBF5F06FF01802504301EB62
:102F8000800006EB0010B0FBF5F000F0F002B1FBA2
:102F9000F5F002EB0012B1FBF5F06FF018035843A7
:102FA00001EB800006EB0010B0FBF5F000F00F0025
:102FB00021681044886070BDA0FB010192185B413C
:102FC000FDF7FEF80146B0FBF5F00201B1FBF5F0AC
:102FD0006FF01803584301EB800006EBC000B0FB14
:102FE000F5F000F0F80002EB4002B1FBF5F05843B9
:102FF00001EB800006EBC000B0FBF5F000F007002D
:10300000D6E7000000100140001401408162828573
:10301000C28500210164222280F83E2080F83C1005
:103020000168CA6842F48072CA6001684A6942F065
:1030300001024A610068C16841F02001C1600020BE
:10304000704700000148FFF773B9000044030020F7
:1030500070B501250C4606460D70FEF7F3F8C4F86E
:103060000801A17894F884002218401C84F8840098
:10307000117194F884007F2814D394F8842004F10B
:103080008600211D0646FDF7D0F814F8840F607005
:1030900021780020885504F8835C04F8840C2070A3
:1030A000012070BD0122A11C3046FFF7B9FA0020B3
:1030B00070BD70B508780C46E0B1FEF7C3F8D4F8DF
:1030C0000811401A0A2815D994F8842004F18600C2
:1030D000211D0546FDF7A9F814F8840F60702178CA
:1030E00000204855012104F8831C04F8840C20704A
:1030F000084670BD002070BDFEE700000FB4054B10
:1031000010B503A9044A029800F0E2F810BC5DF87B
:1031100014FB0000013A0008300000200907090EE6
:10312000002804DB00F1E02080F80014704700F074
:103130000F0000F1E02080F8141D704702E008C87D
:10314000121F08C1002AFAD170477047002001E021
:1031500001C1121F002AFBD1704700002DE9FF5F5B
:10316000DDE90220010DDDF838B0024318D044F645
:103170001050A1F2FF3141430D140F98012820D0C7
:10318000A5EB0B00401C5FEA000A4FF00004474E1D
:10319000DFF81C91A046504616D5CAF1000728E07A
:1031A0000F98012443A2012808D0002100980F9B0A
:1031B000C0E90021C0E90243BDE8FF9F6FEA0B01AF
:1031C000F4E7CBF10000DEE7074612E0F80707D08E
:1031D0002246334640464946FDF7ABFA80468946CB
:1031E0002246334610461946FDF7A3FA04460E461A
:1031F0007F10002FEAD1DDE90201BAF1000F42464B
:103200004B4602DAFDF795FA01E0FDF704FB0446B0
:103210000E460022284BFDF781FB03D84FF0FF300C
:10322000014607E00022254B20463146FDF7DAF93A
:10323000FDF771FC102409E0002C0ADB0A220023B0
:10324000FCF7BEFF019B30321A55641E50EA0102A2
:10325000F2D1641C019AC4F1110314440F9A012A9B
:1032600003D0012208430DD10AE0084304D0002016
:103270004FF0110B0F9080E7A3EB0B056D1E0DE0D7
:103280005B4504DD4FF0000205F1010504E003DABF
:103290004FF00002A5F10105002AECD000980F992B
:1032A000C0E90231C0E9004586E700000000244083
:1032B0000000F03F300000000000F0430000E03F5D
:1032C00030380A2801D201207047002070470000E2
:1032D0002DE9FF4F95B09B468946064600250FE233
:1032E000252877D100242746F84A0121059400E0DB
:1032F000044316F8013F203B01FA03F01042F7D1D6
:1033000030782A2811D06FF02F033078A0F13002E6
:10331000092A16D8059A44F0020402EB820203EB54
:1033200042021044761C0590EFE759F8042B0592F1
:10333000002A03DA504244F40054059044F0020499
:10334000761C30782E2816D116F8010F44F00404AC
:103350002A280DD06FF02F023078A0F13003092B0E
:1033600009D807EB870302EB4303C718761CF3E782
:1033700059F8047B761C30786C280FD006DC4C287A
:1033800017D068280DD06A2814D104E0742810D012
:103390007A280FD10DE044F400140AE044F48014BC
:1033A00001E044F440147278824202D104F58014A2
:1033B000761C761C307866280BD013DC582877D022
:1033C00009DC002875D04528F6D04628F4D04728D7
:1033D0001AD19DE118E0632835D0642879D065289A
:1033E00012D195E1702873D008DC6728F1D06928E4
:1033F0006FD06E280DD06F2806D1B5E073282CD081
:10340000752875D0782874D05A46179990476D1C46
:1034100075E1C4F30250022809D003280DD0D9F871
:10342000001004280DD00D6009F1040967E1D9F8F6
:103430000010EA17C1E90052F6E7D9F800100D8034
:10344000F2E70D70F0E719F8041B8DF8001000206A
:103450008DF80100EA46012003E059F804AB4FF073
:10346000FF3061074FF0000102D40DE008F10101C7
:103470008846B9420FDA8045F8DB1AF808100029AF
:10348000F4D108E008F1010188468142FADB1AF81C
:1034900008100029F6D105985B46A0EB08072146E5
:1034A0003846179A00F094FA284400EB080507E024
:1034B0004DE029E10DE01AF8010B5A4617999047A3
:1034C000B8F10108F7D25B4621463846179A13E156
:1034D00042E00A220092C4F302524FF0000A022A8C
:1034E00008D059F804CB032A4FEAEC710AD00DE05A
:1034F00029E02AE009F1070121F00702F2E802C100
:10350000914609E00FFA8CFC4FEAEC71042A03D1D2
:103510004FFA8CFC4FEAEC71002907DA0A460021C9
:10352000DCF1000C61EB02012D2202E0220504D542
:103530002B228DF80420012203E0E20701D0202293
:10354000F7E7904659E00A2102E010220DE0102131
:103550004FF0000A00910BE010224FF0000A44F0F7
:1035600004040827009203E008224FF0000A0092AA
:10357000C4F30252022A05D059F804CB0021032AD1
:1035800008D009E009F1070121F00702F2E802C1C1
:10359000914605E01FFA8CFC042A01D10CF0FF0CC7
:1035A0004FF00008220728D5702806D0009B83F032
:1035B000100353EA0A0305D00EE040228DF80420E0
:1035C000012208E05CEA010206D030228DF80420D6
:1035D0008DF8050002229046009B83F0080353EA11
:1035E0000A030AD15CEA010201D1620705D5302243
:1035F0008DF804204FF001087F1E582804D034A015
:1036000003900EA802900DE036A0F9E753466046FD
:10361000009AFCF7D5FD84460398825C0298401E10
:10362000029002705CEA0100F0D1029806A9081A23
:1036300000F1200A600702D524F4803400E001275D
:10364000574502DDA7EB0A0000E0002000EB0A016D
:10365000009005984144401A0590E00306D45B466B
:103660002146179A059800F0B3F90544002706E0B3
:1036700001A85A46C05D179990476D1C7F1C4745AD
:10368000F6DBE0030CD55B462146179A059800F05F
:103690009FF9054404E030205A46179990476D1C65
:1036A0000099481E00900029F5DC08E00298029974
:1036B0005A460078491C0291179990476D1CBAF13F
:1036C0000001AAF1010AF1DC65E10000092801000E
:1036D0003031323334353637383961626364656688
:1036E000000000003031323334353637383941424A
:1036F000434445460000000000F058F90544761C9C
:10370000307800287FF4ECAD19B02846BDE8F08F82
:10371000620700D4062709F1070222F0070CFCE833
:103720000223E14603F000485FEA080C02D00FF2E2
:10373000702C0DE05FEA045C02D50FF2682C07E004
:103740005FEAC47C02D00FF2602C01E0AFF2700C93
:103750004FF0FF3823F00043CDF850C065280CD05F
:1037600006DC452809D046281DD047283DD13DE03C
:10377000662818D067287ED138E00021112F01DBA0
:10378000112000E0781CCDE9000106A90EA8FFF782
:10379000E5FCDDE90F010E9A03910021009207F18B
:1037A000010A04914DE04FF000400097CDE901106F
:1037B00006A90EA8FFF7D2FCDDE90F0203920E9BCB
:1037C00011990022DDF80CA00093049211B9791C24
:1037D00000EB010AB7EB0A0004D4C0F1FF3007F197
:1037E000010A0490AAEB0700019044E0012F00DADF
:1037F00001270021112F01DD112000E03846CDE91D
:10380000000106A90EA8FFF7A9FCDDE90F010E9A39
:103810000391002104910092BA4621070CD4039928
:10382000514500DA8A46BAF1010F05DD009AAAF186
:103830000101515C302908D0B84202DA10F1040FBE
:1038400006DA0121CDE9011015E0AAF10101E9E74D
:10385000002805DC049901440491AAEB000102E070
:10386000411C514500DD8A460499401A401C0190D4
:103870004FF000400290200704D40198504501DB2E
:10388000CDF8048000208DF84F0002980DF14F070D
:10389000B0F1004F25D02B200E9002984FF0020877
:1038A00000280CDA404202902D200E9007E00A21F9
:1038B0000298FDF74BF83031029007F8011DB8F17E
:1038C0000001A8F10108F2DC02980028EFD1791E6E
:1038D0000E980870307800F0200040F0450007F89E
:1038E000020D12A8C01B00F107081498007800B15F
:1038F000012000EB0A01019801EBE07105984144B9
:10390000401A401E0590E00306D45B462146179AF4
:10391000059800F05DF805441498007818B15A46EF
:10392000179990476D1CE00324D55B462146179AF2
:10393000059800F04DF805441CE00498002807DBCA
:10394000DDE90301884203DD0098405C179901E03E
:10395000179930205A469047049805F10105401CFC
:1039600004900198401E019004D12E205A461799C8
:1039700090476D1CBAF10001AAF1010ADDDC05E0F7
:1039800017F8010B5A46179990476D1CB8F10001C2
:10399000A8F10108F4DC5B462146179A0598ABE6CE
:1039A0002D0000002B000000200000002DE9F04158
:1039B000044600251E461746880404D405E039460F
:1039C0002020B0476D1C641EF9D52846BDE8F08163
:1039D0002DE9F041044600251E469046C80301D556
:1039E000302700E02027880404D505E0414638460A
:1039F000B0476D1C641EF9D52846BDE8F081000073
:103A000003490A685206FCD5C2B24A6070470000FA
:103A1000001001402DED048BFDF722FCFDF712FC98
:103A20000446FFF757F8FEF723FEFEF773FEFEF796
:103A3000A7FEFEF7DBFEFEF753FEFEF72FFFFEF7B5
:103A4000E9FF2B492B48FDF797FA012300211A467D
:103A50000846FEF741FFDFED288A9FED289A9FED8B
:103A6000288AB0EE682AF0EE491AB0EE481ADFED67
:103A7000250A9FED250A2548FEF763FFDFED249A0E
:103A80002248B0EE682AF0EE491AB0EE481AF0EE7D
:103A9000690AB0EE480A2430FEF753FFB0EE682AF8
:103AA000F0EE491AB0EE481AF0EE690AB0EE480A94
:103AB0001848FEF746FF1748B0EE682AF0EE491A9C
:103AC000B0EE481AF0EE690AB0EE480A2430FEF76C
:103AD00038FF11A0FFF712FBFDF7B4FB001B3228E3
:103AE000FAD3FEF7BBFFFDF7ADFB0446F4E7000099
:103AF000140100204403002000401C460000C8427E
:103B0000CDCC4C3E6F12833A9A99193F4C0000205D
:103B10008FC2753CB00000202E2E2E000000000049
:103B2000000000000102030406070809000000006D
:103B300001020304DDDDDDDDDCBBBBDDDDDDDDDD64
:103B4000DDDDDDDD988888888888888877777777D5
:103B500077888888855555566666666666666666A1
:103B6000666888888333333222222222222222224C
:103B70002228888D943B00080000002034000000BB
:103B80003C310008C83B0008340000205407000006
:103B90004C3100080000000001000000000000009F
:103BA0000000000000000000000000000000000015
:103BB00000000000010000001000000000000000F4
:083BC0000024F40000000000E5
:040000050800018965
:00000001FF
