:020000040800F2
:10000000000B00205D020008014600082F43000895
:1000100095450008ED2B0008754D00080000000014
:100020000000000000000000000000004B47000836
:10003000EF2B000800000000494700084D4700086A
:1000400077020008770200087702000877020008AC
:10005000770200087702000877020008770200089C
:10006000770200087702000877020008770200088C
:10007000770200087702000877020008770200087C
:10008000770200087702000877020008770200086C
:10009000770200087702000877020008770200085C
:1000A00077020008F147000877020008770200088D
:1000B00077020008FD470008770200087702000871
:1000C000770200087702000877020008770200082C
:1000D00077020008C14C0008770200087702000888
:1000E000770200087702000877020008770200080C
:1000F0000948000877020008770200087702000824
:1001000077020008770200087702000877020008EB
:1001100077020008770200087702000877020008DB
:1001200077020008770200087702000877020008CB
:1001300077020008770200087702000877020008BB
:1001400077020008770200087702000877020008AB
:10015000770200087702000877020008770200089B
:10016000770200087702000877020008770200088B
:1001700077020008770200087702000800000000FC
:10018000770200087702000800F002F800F057F844
:100190000AA090E8000C82448344AAF10107DA45E2
:1001A00001D100F04CF8AFF2090EBAE80F0013F0DD
:1001B000010F18BFFB1A43F001031847AC560000AB
:1001C000CC560000103A24BF78C878C1FAD852073C
:1001D00024BF30C830C144BF04680C6070470000C1
:1001E0000023002400250026103A28BF78C1FBD840
:1001F000520728BF30C148BF0B607047662905F021
:100200004E82002070471FB505F03FFA9DE80300BD
:1002100001F058FE00F018FF04000020002104F057
:10022000BBFF401C60600020002104F09FFFE060E5
:1002300001F0CCF91FBD10B501F031FA10BD01F08D
:1002400099FA1146FFF7DFFF04F004FF01F0CEFD3D
:1002500003B4FFF7F0FF03BC04F0ABFE094880478E
:1002600009480047FEE7FEE7FEE7FEE7FEE7FEE798
:10027000FEE7FEE7FEE7FEE704480549054A064BB0
:1002800070470000E14700088901000800050020D0
:10029000000B0020000700200007002053EA020C9A
:1002A00000F069802DE9F04B4FF00006002B1FBFD6
:1002B000B3FA83F503FA05F424FA05F65E4012BF9B
:1002C0001643B2FA82F502FA05F4C5F120051EBF05
:1002D00022FA05FC44EA0C04203556EA044C4FEAA5
:1002E000144418BF641C4FF000084FF000099042FE
:1002F00071EB030C39D3002919BFB1FA81F701FA68
:1003000007F6B0FA80F700FA07F6C7F120071EBF1C
:1003100020FA07FC46EA0C062037B6FBF4FCA7EBF4
:100320000507103F07F01F0BCBF120060CFA0BFB63
:100330002CFA06F644BFB3460026202FA4BF5E4623
:100340004FF0000B5BEA060C08BF4FF0010B19EBF6
:100350000B09ABFB027C48EB0608C01B06FB02CC7A
:100360000BFB03CC71EB0C01C1E70B460246414687
:100370004846BDE8F08B13B54FF000004FF0000188
:10038000AFF30080BDE81C40704700000FB4044983
:1003900010B503AA029800F08BFB10BC5DF814FBAB
:1003A000F40300202DE9F05F894604464FF0000A6F
:1003B000DFF874B1FB44C0F820A02046E16888470C
:1003C000002874D0252806D0D4E901219047206A5E
:1003D000401C2062F1E700265F462046E16888471E
:1003E0002028054607DB312D05D2781910F8200C9E
:1003F00008B10643F1E7B00701D526F00406C4F8BA
:100400001CA00027C4F818A02A2D09D0284604F003
:10041000C9FD38B304EB8708303DC8F8185019E01F
:1004200059F8041B204604EB87029161E168884774
:10043000012F054618D1E069002820DA26F02006B1
:100440001DE0D8F8180000EB800005EB40003038C4
:10045000C8F818002046E1688847054604F0A2FD68
:100460000028EED1012F0AD02E2D08D12046E168B8
:1004700088477F1C0546022F46F02006C4DBA06992
:10048000002803DA404246F00106A061F00701D0DF
:1004900026F010066C2D0BD0682D09D04C2D39D0CC
:1004A0006A2D35D0742D35D07A2D33D016E038E052
:1004B000E1682F4620468847B842054609D16C2F8F
:1004C00026D04FF48060E168064320468847054601
:1004D00004E06C2F1AD04FF4807006430DB3A5F1E1
:1004E0004100192802D8203546F400664A462946BC
:1004F000204626604E46FFF781FE80B101280BD0D2
:10050000F61D26F0070000F1080956E74020E4E751
:100510008020D8E70020D6E706F104094DE72846F9
:1005200052E7206ABDE8F09FFE5300000FB400B50B
:100530008DB010A9099000910B904FF0FF300A90F8
:1005400000200C90064878440690064878446A4695
:1005500007900F9909A800F015FD0DB05DF814FB88
:100560005B0A0000730A0000002800DA404270476E
:10057000032A40F2308010F0030C00F0158011F8CF
:10058000013BBCF1020F624498BF11F801CB00F8A7
:10059000013B38BF11F8013BA2F1040298BF00F8FB
:1005A00001CB38BF00F8013B11F0030300F01A85BE
:1005B000083AC0F0088051F8043B083A51F804CBDF
:1005C000A0E80810F5E7121D5CBF51F8043B40F8A5
:1005D000043BAFF30080D20724BF11F8013B11F8B0
:1005E00001CB48BF11F8012B24BF00F8013B00F8F4
:1005F00001CB48BF00F8012B70474FF0000200B557
:10060000134694469646203922BFA0E80C50A0E835
:100610000C50B1F12001BFF4F7AF090728BFA0E8E3
:100620000C5048BF0CC05DF804EB890028BF40F8AF
:10063000042B08BF704748BF20F8022B11F0804FF1
:1006400018BF00F8012B704770477047704710B50E
:1006500000F0FEFC006810BD10B5044600F0F8FC88
:10066000046010BD70472DE9FF4F0C461E464FF049
:10067000FF378BB0D2E90001DDF860800A908A462E
:10068000C1F30A5505B93D46002108464FF0000068
:10069000BAF1000F00F4400005DA00EB80004FF4DF
:1006A000400101EA50004FEA9059B9F1010F00DD15
:1006B000B9460A9850EA4A000ED044F61050A5F206
:1006C000FF3545432F14B8F1000F1ED07542291E87
:1006D0001EDDC9F100021CE0B8F1010F4FF000006F
:1006E00001D0302103E0F24305E02154401CB04228
:1006F000FBDB30460022002121540B99C1F8088011
:10070000C1E900200FB0BDE8F08FBD1B6D1CDEE716
:100710004A4600DA694206A800F0E6FE06AB93E816
:10072000070003AB83E8070050460A9901F00EFE6C
:100730008DE80700A0F500501F3800900398002DA9
:1007400009DD42F21F014A46084403A903906846A6
:1007500002F097F808E0A0F500504A461F3803A9B8
:100760000390684602F0B5F88DE807000004000C1D
:1007700003D04FF0FF30410800E01046B8F1000F01
:1007800003D00022009215461EE0751E05D400F02D
:1007900063FC303262556D1EF9D5B3460122084321
:1007A00002D000227F1C04E02078302801D10022F2
:1007B0007F1E002A099786D01DE0112D07DA00F070
:1007C0004BFC303262556D1C50EA0102F5D10843F2
:1007D00002D00098C8B10EE00021681E05E0235C3D
:1007E000625C63542254401E491C8142F7DBAB46D5
:1007F000A81B401E0990002004F80B000B98099AD2
:10080000C0F80880C0E9002B7CE711264FF00008F3
:1008100059E72DE9F04F88460446D21D22F0070122
:1008200091B0D1E90001CDE90A0104F0A4FA024631
:100830000B98C00F01D02D2007E02068810701D55B
:100840002B2002E0202101EAC000032A099001D0F8
:10085000072A05DB03464146204600F04BFC0BE12E
:100860002078800601D5E06900E00620B8F1650F28
:10087000814606D0B8F1660F18D0B8F1670F70D175
:1008800031E00020B9F1110F009001DB112301E0EC
:1008900009F101030AAA01A90CA8FFF7E4FEDDE9AA
:1008A0000C70002609F10105834647E001204B4604
:1008B00000904FF000470AAA01A90CA8FFF7D3FE49
:1008C000DDE90DB00C995D46002610B909F1010073
:1008D0000D18B9EB050003D4C0F1FF3609F101058D
:1008E000A5EB09002BE0B9F1010F01DA4FF0010986
:1008F0000020B9F1110F0090484601DD112300E0FE
:1009000003460AAA01A90CA8FFF7ADFEDDE90C70A9
:100910004D4600268346207800070AD4AB4500DA0E
:100920005D4601A8012D04DD411911F8011C302993
:1009300007D04F4502DA17F1040F04DA012082468E
:100940000FE06D1EEEE7002F02DCED1B3E4403E0DE
:10095000781CA84200DD7D1CB81B00F1010A4FF095
:1009600000472078000703D4AA4501DB4FF0FF3A87
:100970000021B7F1004F0DF143088DF8431024D04A
:1009800002202B23002F01DA7F422D230A21021E91
:10099000A0F1010000DC5FB197FBF1FC97FBF1F2E5
:1009A00001FB1C7C17460CF1300C08F801CDEEE77A
:1009B000A8F1010003702188090501D5452100E057
:1009C0006521A0F1010800F8011C09980FA9A1EB0D
:1009D0000807FF1D00B10120411901EBEA70A16970
:1009E0003844081A401EA0612078C00602D4204670
:1009F000AFF30080099828B1D4E901219047206A1B
:100A0000401C20622078C00622D52046AFF300802B
:100A10001EE0002E04DBB34502DD01A8805D00E08E
:100A20003020D4E901219047206A401C2062761CC6
:100A3000AAF101005FEA000A0AD100F005FBC068D4
:100A40000168405CD4E901219047206A401C206283
:100A5000281EA5F10105DCDC07E0D4E9012118F826
:100A6000010B9047206A401C2062381EA7F1010745
:100A7000F3DC2046AFF30080032011B043E6000012
:100A800001694A1C02610878704700B58FB0CDE952
:100A900001310021059105497944CDE90310114642
:100AA0006846FFF77FFC0FB000BD0000E5FFFFFFC9
:100AB000074B70B50D467B44FFF7E7FF0446284619
:100AC00000F080FD10B14FF0FF3070BD204670BDCA
:100AD000FB4400002DE9FF4F064689B00878FF2847
:100AE00006D0491C2D2805D000244FF0000908E04D
:100AF00000200CE00124F8E709EB8903491C00EB16
:100B000043090878FF28F7D114B1C9F100008146E4
:100B1000107800252C46AA4629462D2801D02B28DE
:100B200004D1521C2D2813D0002082468B46107809
:100B3000FF280FD04FF0000C0A21521CA5FB0178B2
:100B400004FB018105FB0C11C5194BEB0104EEE719
:100B50000120EAE7002108464FF00000BAF1000F3B
:100B600002D000EB80004008C0F38158B8F1010FBB
:100B700001DD4FF0FF380C9809EB000755EA04003F
:100B800009D04FF0020917F5FA7F0BDA4FEACA7065
:100B9000C6E900B012E04FEACA70C6E900B00DB075
:100BA000BDE8F08FB7F5FA7F0DDDF0487844D0E965
:100BB0000010C6E9001040EACA70706000F048FA00
:100BC000C0F80090EBE7391E02DAC8F1000200E03D
:100BD000424600DA794206A800F086FC06AB93E8AC
:100BE000070003AB83E8070044F23E005BEA040120
:100BF0000090584604D144F21E012C465D460091F7
:100C0000210C0904014306D10099240444EA154447
:100C10002D041039009104F07F41014306D1009961
:100C2000240244EA15642D020839009104F0704151
:100C3000014306D10099240144EA15742D01091FCE
:100C4000009104F04041014306D10099A40044EA18
:100C50009574AD00891E009104F00041084304D151
:100C600000986D196441401E009042466846002F6E
:100C7000CDE9014503A902DD01F03FFE01E001F0ED
:100C800014FEBAF1000F04460D4601D084F0004472
:100C900040F2FF7724F00040284303D0C4F30A5009
:100CA000B84212D100F0D4F9C0F80090C4F30A5051
:100CB000B8420AD1AE487844D0E90010C6E9001025
:100CC00004F000410843706069E7C6E9005466E734
:100CD0002DE9FF4F1F464FF0000A4FF0FF38454601
:100CE00091B0D7E90146CDF83CA000F0ADF9C0685D
:100CF0000168405C1090B96912986D1C8847396A88
:100D0000814688470028F6D1B9F1FF3F0AD0002E6E
:100D100024F4D06411DDB9F12B0F08D0B9F12D0FF7
:100D20000BD102E0404615B03AE744F48064B9695B
:100D300012986D1C8847761E8146600504A901D56E
:100D40002D2000E02B20002E01F1010B0DF13008C9
:100D50008DF810003FDDB9F1690F08D0B9F1490FE6
:100D600005D0B9F16E0F02D0B9F14E0F1CD13B4640
:100D700001A8009580E85002DDE912126FF0020030
:100D800004F0F3FCC11CCED10EE0B96912986D1CC1
:100D9000884781461398761E44F4007405600F98C6
:100DA000401C002E0F9016DDB9F1300FEDD0B9F1D7
:100DB000780F02D0B9F1580F0DD10F9801280AD140
:100DC0003B46CDE90054DDE91212001F029604F003
:100DD000CAFCC11CA7D1109989453ED144F08004BA
:100DE00006E01399681CAAF1010A44F40074086033
:100DF000B9696D1C1298761E884730288146F0D05C
:100E00002BE01099894505D1200603D4761E44F0C5
:100E1000800418E0484604F0C5F808B3761E0DF1CA
:100E200023018B4544F4007408D2A9F130000BF87B
:100E3000010B200607D5AAF1010003E0200602D429
:100E40000AF101008246A00502D51399681C0860CA
:100E5000B96912986D1C88478146002ED1DC53E099
:100E6000002E51DDB9F1650F02D0B9F1450F4BD11C
:100E7000A00549D5B9696D1C1298761E24F44074FA
:100E80008847002E81460CDD2B2804D0B9F12D0FA8
:100E900007D144F48074B96912986D1C8847761E96
:100EA0008146E00501D52D2100E02B2108F8011B2A
:100EB000CDF8008021E0761E0DF13901884544F41B
:100EC00000740CD2A9F1300010F0FF0088F8000087
:100ED00002D10099884509D908F1010806E0E0052A
:100EE00001D5244801E042F20F708246B969129898
:100EF0006D1C8847814613980560002E04DD484626
:100F000004F050F80028D6D1F96912988847FF20DC
:100F100053468BF8000088F8000000200A900B90E0
:100F200004AA0CA90AA8FFF7D5FDA00502D46FF00A
:100F30000100F8E614F0240F0AD0E00714D1386855
:100F4000DDE90A12031D3B600068C0E900120BE0F6
:100F50000AA9684603F0C0FFE00705D13868009A87
:100F6000011D3960006802602846DCE6D84C0000AC
:100F7000CE4B0000F1D8FFFF0268114413780160E6
:100F800018467047D1600549794451610449794454
:100F9000116200211161114600F0ECB8EDFFFFFF76
:100FA00051010000426842B1016811F8013B23B1D0
:100FB000521EC0E90012184670470121C160881E08
:100FC000704742685AB1C368016843B983688B426D
:100FD00005D0491E521CC0E90012002070474FF096
:100FE000FF30704710B5203AC0F00B80B1E81850C0
:100FF000203AA0E81850B1E81850A0E81850BFF403
:10100000F5AF5FEA027C24BFB1E81850A0E81850A1
:1010100044BF18C918C0BDE810405FEA827C24BFF5
:1010200051F8043B40F8043B08BF7047D20728BF83
:1010300031F8023B48BF11F8012B28BF20F8023BD2
:1010400048BF00F8012B704700487047BC040020DF
:10105000004870479C04002030B5B0F10A024FEA06
:10106000900E71F100034EEA817EB0EB0E0061EB51
:1010700091014FEA101E4EEA017E10EB0E0041EB8B
:1010800011114FEA102E4EEA016E10EB0E0041EBEB
:1010900011214FEA104E4EEA014E10EB0E0041EBCB
:1010A0001141401841F100014FEAD00040EA41707F
:1010B0004FEAD10110EB80054FEA810444EA9074B5
:1010C00044EB01046D1944EB0404521BA3414FF09F
:1010D000000348BF0A3200D530BD401C41F1000179
:1010E00030BD10B5044600F06BFB0068005D00F0F9
:1010F000010010BD2DE9F0411F460446032601689A
:10110000072A01F4006004DB08B116A505E016A566
:1011100003E008B115A500E015A521F0100020603E
:10112000A069C01EA0610FB1401EA0612046AFF3B0
:1011300000804FB1D4E9012138469047206A401C15
:101140002062C01C206206E0206AFAE7D4E901218F
:1011500015F8010B9047761EF8D22046AFF30080B9
:10116000BDE8F0814E414E006E616E00494E460072
:10117000696E66002DE9F34F4FF0000A0C465646A3
:101180008DB001200C9001F10C000B9062690B985E
:101190000121904705002DD0252D2CD0216A8847AC
:1011A000C0B162690B9801219047216A88470028E5
:1011B000F7D16269411E0B98904700E0761CA16947
:1011C0000D988847216A88470028F7D1E1690D9872
:1011D0008847DBE7A1690D988847A842074601D1F7
:1011E000761CD3E7E1690D9888477F1C02D1BAF1DC
:1011F000000F6FD06BE162690B9800273D463946BE
:1012000090472A2804D162690B9801219047012553
:10121000DFF8D08262690B9801219047A0F130017C
:101220000A290AD24745E5DC07EB870100EB4107B5
:10123000303FDFD445F01005ECE7E90601D46FF04C
:1012400000476C280AD04C2814D0682815D06A288A
:101250000DD074281CD07A281AD01DE062690B9832
:10126000012190476C2802D045F0040514E045F0B8
:1012700002050DE045F020050AE062690B980121A6
:101280009047682802D045F0080505E045F4006560
:1012900062690B9801219047C4E9015765283DD048
:1012A00019DC58287AD00CDC452837D004DC2528F6
:1012B00026D041289ED131E046282FD0472899D109
:1012C0002CE05B2877D0612828D063287CD0642864
:1012D00023D15AE0F6E06F2848D008DC66281DD0FC
:1012E00067281BD0692821D06E2816D127E07028E6
:1012F00045D0732868D0752847D078280DD14DE0A7
:10130000A1690D988847252805463FF469AFE16932
:101310000D9888476D1C3FF46AAFD8E00D992346BD
:101320006A466FF0010004F01CFAC5E045F0400089
:1013300023464FF000026060A80736D43EE0E8077D
:101340007FF447AF2068011D21600068290501D5A1
:1013500006701BE7290701D5068017E7A90703D503
:10136000F117C0E9006111E706600FE745F04000A2
:1013700023464FF008026060A80716D41EE040F62E
:101380000E0125EA0100606016E045F040002346AA
:101390004FF00A026060A80707D40FE045F0400054
:1013A0006060A80708D5234610220D996FF0010050
:1013B000AFF3008080E007E0102223460D996FF024
:1013C0000100AFF3008077E04FF0000963284F463B
:1013D000C8464B46CB4602D05B2806D038E0E8062C
:1013E00001D40120A060012732E06269D4F80CB07A
:1013F0000B98012190475E2807D14FF0010949461B
:101400006269D4F80CB00B989047216939B9002172
:101410000A4603AB43F82120491C0829FADBD8B35C
:10142000216949B308F1010862690B9801219047CD
:101430005D28F4D1B9F1000F09D0002003A951F8BB
:101440002020D24341F82020401C0828F7DB03ABC2
:101450002069002820794FEA40701ED05B46224662
:10146000CDF80080CDE901970D9900286FF00100BB
:1014700020DAAFF300801FE0C11703AA00EBD161AF
:101480004B1121F01F0102EB8302411A1368012066
:10149000884003431360C7E719E00D9922460028EE
:1014A0006FF00100009702DAAFF3008004E0AFF3C1
:1014B000008001E0AFF3008000280ADA401C06D16A
:1014C0000C9820B14FF0FF300FB0BDE8F08F5046C0
:1014D000FAE7E90701D10AF1010A064400200C905D
:1014E00054E60000CCCCCC0C2DE9F04781461646E2
:1014F0008AB0334878440DC88DE80D0030487844F0
:10150000801C03AC0DC884E80D0041F69B300844F4
:10151000372190FBF1F290FBF1F5A5F1800501FB7D
:1015200012041B3C02D56442012000E00020DFF8D9
:1015300090A080460027FA44AAF1BE0A0DE0E00719
:1015400009D03246684607EB47010AEB810101F0FA
:10155000C0F98DE8070064107F1C002CEFD1184FF4
:101560007F44AC3F18E0E80714D007EB04100DF1FE
:10157000180A90E80E008AE80E00C068F04201D117
:1015800098190890324606A903A801F0A2F903AB06
:1015900083E807006D10641C002DE4D132466946D3
:1015A000B8F1000F03A802D001F06BF901E001F0DF
:1015B00090F9C9E90001C9F808200AB0BDE8F08730
:1015C0004C430000007B00F08000704710B542489B
:1015D0005421FFF712F841485421FFF70EF8404814
:1015E0005421FFF70AF83F493B483C4A3F4B08600B
:1015F0003D490A603A491960531C0365481C10654F
:10160000012008653B48344A39A1784400F052FB78
:1016100020B9384878440A3800F0EEFB37482F4AA2
:1016200035A1784400F046FB20B9344878440A38A4
:1016300000F0E2FB32482A4A2FA1784400F03AFB3E
:1016400020B92F4878440A3800F0D6FB40232248BE
:10165000DC000021224600F009FB20B12548784437
:10166000543800F0C9FB1D4822464023002100F0F9
:10167000FDFA20B121487844543800F0BDFB1848E9
:1016800022461023002100F0F1FA002806D01C4861
:101690007844BDE81040563800F0AEBB10BD10488D
:1016A00070B5006D20F001040B4800F079FB0B4889
:1016B00000F076FB0A4800F073FB09E0206D20F093
:1016C0000105204600F06CFB204600F081F82C4616
:1016D000002CF3D170BD0000A0030020F403002013
:1016E0004804002040000020440000204800002062
:1016F000720000004E420000770000003A420000F5
:10170000264200000EB5CDE9000100F06FFD029009
:1017100069460120ABBE0EBD08B5694600900220A7
:10172000ABBE08BD1FB58DE8070069460520ABBEFE
:1017300004B010BD1FB58DE80F0069460620ABBE92
:10174000F6E708B5694600900920ABBE08BD1CB598
:10175000CDE9000169460A20ABBE1CBD704708B543
:10176000694600900C20ABBE08BD000000487047E1
:101770009C0400207546FFF7F9FFAE460500694658
:10178000534620F00700854618B020B5FEF774FDDB
:10179000BDE820404FF000064FF000074FF0000872
:1017A0004FF0000B21F00701AC46ACE8C009ACE8F3
:1017B000C009ACE8C009ACE8C0098D46704700001C
:1017C00010B5FFF741FC001D10BD00BFCD39000072
:1017D00070B50446051F00F059FB0068002C14BFCB
:1017E000446870BD002C18BFAC423CBF2046646802
:1017F000F8D301680A18AA4218BF456003D12A68C5
:1018000005461144016028684119A1421CBF6C6063
:1018100070BD6168696021680844286070BD00007F
:101820002DE9FF4F1F464FF03C0987B04FF00042B3
:10183000DDE9141001F10108DDF858A002EA40507A
:101840000390002004908346054604460590B9693C
:10185000461E08988847AAF1010A0290BAF1000FC3
:1018600037DD02982E2815D0102100F09CFB0028AF
:101870002ADB4FF0010B0499014316D0B9F1000F98
:101880000BDB4A46C11700F07BFB05430C43A9F173
:10189000040905E00120059007E008B145F00105C5
:1018A00001200490059800B9361DB969089808F11F
:1018B00001088847BBF1000FAAF1010A0290CDD0C0
:1018C0000999C1F80080C9E70298702808D050280B
:1018D00006D0F96908988847BBF1000F14D04FE093
:1018E000002002900120BBF1000F049009D0B969DB
:1018F000089808F101088847AAF10109B9F1000F19
:1019000007DCF969089888476FF001000BB0BDE863
:10191000F08F2B2804D02D280CD14FF0FF300490ED
:10192000B969089808F101088847A9F10109B9F1D6
:10193000000FE6DD411CE4D00A2100F034FB002852
:10194000DFDB029908F1010801EB810100EB4100A6
:101950000290B969089888470A2100F024FB099A87
:10196000A9F10109B9F1000FC2F8008001DD0028DA
:10197000E7DAF969089888470499029800FB01663C
:1019800055EA040004D004F04041090002D006E00A
:10199000039898E0A40044EA9574AD00B61E04F0E4
:1019A0000041080002D16D196441761E159810F0AF
:1019B000240F03D04FF00B095C4803E04FF02809D7
:1019C0006FF07D008246564507DAAAEB060189448E
:1019D000B9F1410F01DD4FF0410901200021A9F1CA
:1019E000010200F0CDFA024628400B462140084390
:1019F00001D0012100E00021501E029143F1FF318E
:101A000028402140084301D0012000E00020029935
:101A1000834651EA0B014FD0002108464FF00000E9
:101A2000039900F4400039B100EB80004FF440010D
:101A300000EBD07001EA60008015012802DD4FF054
:101A4000FF3000E013D0401C36D0029860B3BBF1E9
:101A5000000F0CD14A460120002100F091FA2840E5
:101A60002140084301D0012000E00020E0B1012026
:101A70004A46002100F084FA034640190A466141B3
:101A80002D1A8C4111D3B9F1400F09DD159810F0D2
:101A9000240F02D0AAF1340603E0AAF1170600E0F1
:101AA000761C00254FF0004406E05B1E42F1FF3239
:101AB00020EA030521EA0204CAF10100B04206DA75
:101AC0001B49039808430190002000900EE0039A00
:101AD000C4F3D321E80A0A43164940EA44500A43B2
:101AE0003146CDE90002684603F052FA159810F02D
:101AF000240F0BD01598C00715D13868DDE9001206
:101B0000031D3B600068C0E900120CE002A86946B2
:101B100003F0E2F91598C00705D13868029A011D53
:101B20003960006802604046F0E6000002FCFFFFFA
:101B30000000F07F0000F03F2DE9FF4F92461D4668
:101B400085B04FF00041DDE9124BDDE914727F1ED4
:101B500001EA4B50414940F0FF4940EA01080021A9
:101B600022F020004928049102D04E2828D04CE0D1
:101B70003BA0012607C88DE80700A9690698641CE8
:101B800088477F1E014606D41DF8060018B121F0D3
:101B9000200181420BD0E96906988847032E34D092
:101BA000082E32D06FF0010009B0BDE8F08F761C2E
:101BB000032E01D0082EE0D1601CCAF80000DCE73B
:101BC000A9690698641C88477F1E2AD420F020004B
:101BD000412826D1A9690698641C88477F1E20D415
:101BE00020F020004E281CD1A9690698641C884763
:101BF0007F1E48F4002849F48009CAF8004001D447
:101C0000282806D0E969069888475FEACB7012D089
:101C100022E0A9690698641C88477F1E01D4002829
:101C200003DAE96906988847BCE72928F1D1641CE2
:101C3000CAF80040E9E71BF0240F07D02868049990
:101C4000031D2B600068C0E9001805E02868021D2C
:101C50002A600068C0F800902046A5E70000F07FE9
:101C6000494E46494E4954590000000070B5C468B9
:101C7000A50713D0650211D4B2F5807F09D0B2F563
:101C8000007F06D0B2F5806F08D1012300F1240156
:101C900006E05D1E6FF07F46B54201D3012070BDA6
:101CA0000161C361416024F470611143C16000208F
:101CB00070BD00002DE9F0410C460746164610465F
:101CC00000F06EF82078611C61280AD0722802D0DA
:101CD00077283CD102E00125002405E002250424F8
:101CE00002E0082448F2020511F8010B2B2806D067
:101CF000622809D011F8010C74280AD00BE045F0D5
:101D0000030544F00204EFE745F0040544F0010444
:101D1000EAE744F0100438462146FFF7F3FC411C83
:101D200015D00021316171604FF40071F560F161EF
:101D30007061200704D530460222002100F042F9EC
:101D4000306D40F0010030653046BDE8F081002084
:101D5000FBE72DE9F0410D460646104C206DC1070A
:101D600004D0410804D020F00104F7E722460EE039
:101D7000542000F0D6F807000ED0206D47F0010186
:101D80000843542120653846FEF737FC3A46294679
:101D90003046BDE8F0418DE70020D6E7A0030020E3
:101DA0002DE9F04704464FF000094FF0FF37C568B2
:101DB000D4E90486A80707D0204600F0B3F93046DE
:101DC000FFF7AAFC002802DA3846BDE8F0872805AC
:101DD00002D54046FFF7FCFC4C212046FEF70DFCE7
:101DE000206D20F0010020654846EEE70446AFF381
:101DF00000802046FEF72CFA10B500F0DDF9BDE8B2
:101E0000104000F0D3B900004FF0013C50F8042B13
:101E100051F8043B9A4221D1A2EB0C03934313EAFD
:101E2000CC1317D150F8042B51F8043B9A4215D12A
:101E3000A2EB0C03934313EACC130BD150F8042B01
:101E400051F8043B9A4209D1A2EB0C03934313EAE5
:101E5000CC13DBD04FF00000704700BFD01A01BA9E
:101E6000B1FA81F101F0180122FA01F0CB40C1F181
:101E70002001DBB2C0B2C01A2CFA01F3D11A91438F
:101E800011EAC311E6D1704770470000004870475F
:101E9000A4040020704770477047704738B5044667
:101EA0000A4600206946AFF30080002808BF38BD0D
:101EB00002460099204600F0BFF9012038BD0120FC
:101EC00000F00EBAF8B5AFF30080054600200C46CE
:101ED000102000BF0646A819A0420DD93246694617
:101EE0000020AFF30080070008BF00F0F9F9009868
:101EF000A04218BF0546C419FFF7C8FF0560074692
:101F0000F01D20F007004619284600F08EF9B44273
:101F100008BFF8BDA21B31463868BDE8F84000F0A4
:101F20008BB970B50646FFF7B1FF056806F10B00E7
:101F300020F00704B4429CBF002070BD2B466A68A5
:101F4000BAB11068A04210D304F1080188423CBF26
:101F50005068586007D35168101941601168091B17
:101F6000016058601460101D70BD13465268002A4D
:101F7000E7D121462846FFF791FF0028DED170BD4A
:101F8000B2F120030AD5C2F1200301FA02F120FACE
:101F900003F300FA02F041EA0301704700FA03F18B
:101FA0004FF0000070473A2800D2303820F020026D
:101FB000412A01D3A2F13700884201D34FF0FF300C
:101FC000704700002DE9F041044616460D4647696A
:101FD000007B80072ED03846FFF7B3FB50BB3EB3E3
:101FE000012E02D0022E25D104E0204600F03EF959
:101FF00005441DE03846FFF7B2FBE168002841F0D8
:102000001001E16005DA204600F058F80120BDE833
:10201000F081C9030BD56268E16A914200D811468C
:10202000A26911442269891A814200DD08460544EB
:10203000002D01DA0220EAE7E16A6068E268814285
:1020400006D29103E06203D522F4003141F0100280
:10205000A6690027AE4213DCE16A814201D90B4632
:1020600000E0034603EB060C2369ACEB030CAC4524
:1020700006DD814201D98C4600E084469C4505D1AD
:10208000A760276042F02000A5620DE0AD1BE66965
:10209000AE1B8142A66000D90846C01A281A2060EB
:1020A0005819606022F0200003490840E0600020D9
:1020B00084F84870ABE70000BFCFD7FFC16821F4B8
:1020C000001141F08001C160002181600160704712
:1020D0002DE9F047814614460E464FF0FF3832484E
:1020E000D5685769054209D03846A169FFF72FFB2B
:1020F000002811DB2C48C0430540E5602B463246E2
:1021000049463846FFF70EFBA16920F00042B21A9B
:1021100011440028A16103D02046FFF7CFFF4046BD
:10212000BDE8F08770B504460569C06A61688842F9
:1021300000D80846E16821F42011E160C90312D5F6
:10214000A84208D02246411B2846FFF7C1FF10B124
:102150004FF0FF3070BD0020E562C4E90150E06837
:1021600020F48030E060002070BD10B50446C068E7
:1021700020F02000E060A16AA06988420DD02046CE
:10218000FFF7D0FFE06820F4405040F01000E0601E
:10219000A06AA0612069E062606044F24001E068EA
:1021A0008843E06010BD000010000200002801D04C
:1021B00002F0FFBE7047000010B5014602A000F01B
:1021C00076F8012010BD000053494752545245444F
:1021D0003A2052656469726563743A2063616E27C0
:1021E00074206F70656E3A200000000010B5431C2B
:1021F00002E010F8011B71B18107FAD14FF00132F2
:1022000002C88C1A8C4314EAC211F9D0C01A0A060B
:1022100003D0C01E10BDC01A10BD0A0401D0801E1C
:1022200010BD0902FCD0401E10BD00210160C0E9B4
:102230000110704710207047034640688C46002804
:1022400018BF88423CBF03464068F8D3186818445A
:10225000884207D00CF1030020F00700001D411A4E
:10226000521A0146081D0A60FFF7B2BA10B50146BE
:10227000C268900703D0900607D5886A0AE0FEF787
:10228000E7FE01210160881E10BD8B694868184473
:102290000B69C01A91F848301BB191F84910401AE7
:1022A00010BD1103FCD50028FADD401E10BD70B52D
:1022B00005460C460A2000E06D1C00F018F835B108
:1022C00028780028F8D102E0641C00F010F814B15E
:1022D00020780028F8D1BDE870400A2000F007B847
:1022E00010B500F00BF8BDE81040FFF75FBF08B570
:1022F00069468DF800000320ABBE08BD10B501286B
:1023000005D0002103A0FFF7D2FF012010BD09A1D5
:10231000F8E7000053494752544D454D3A204F7558
:1023200074206F662068656170206D656D6F7279CD
:10233000000000003A2048656170206D656D6F7285
:102340007920636F72727570746564005FEA400C87
:1023500008BF91F0000F4FEA8C234FEAC12243EAF5
:1023600051514FEA1C5018BF00F5F0404FEA3000C1
:1023700018BF41F000415FEA6C5C00F02980BCF1BD
:10238000FF3F08BF40F080407047130C06BF1204A7
:102390004FF0100C4FF0000C130E04BF12020CF1A2
:1023A000080C130F04BF12010CF1040C930F04BFAF
:1023B00092000CF1020CD30F04BF52000CF1010C7F
:1023C00011464FF00002A0F11F00A0EB0C00704777
:1023D00011F0004F08BF704731F000413FF4D5AF16
:1023E0000B0C06BF09044FF0100C4FF0000C0B0E45
:1023F00004BF09020CF1080C0B0F04BF09010CF11A
:10240000040C8B0F04BF89000CF1020CCB0F04BF2E
:1024100049000CF1010CCCF12003A0EB0C0022FAD6
:1024200003F302FA0CF241EA030100F101007047E4
:1024300020F07F4C80EA030023F07F47ACEB0703DA
:1024400003F57C5300F0004003F1FF032DE98049C0
:102450004FEA154B09B44FEA144325EA0B4E24EA20
:1024600003480FF2042606EB132749083E785FEA7B
:10247000320203FB0667C7F5000707FB06F64FEAC3
:1024800054374FEAD64606F1020607FB066CCCF13C
:10249000005C4FEA1C472CEA074C07FB06F40CFBD8
:1024A00006F504EB15464FEA961634BF00204FF0B0
:1024B00000404FEAD13706FB07FC4FEA1C4C0CFBEF
:1024C0000BF7D21B03FB0CF761EB07010CFB0EF7BC
:1024D000B0EB074072EB17420CFB08F734BFA2EBDE
:1024E0000742B2EB074261EB17414FEA0C444FEA57
:1024F000910706FB07FC4FEA1C4C0CFB0BF7B0EBFB
:10250000C74072EB573203FB0CF734BFA2EBC74254
:10251000B2EBC74261EB57310CFB0EF7B0EBC700D3
:1025200072EB57720CFB08F734BFA2EBC702B2EB99
:10253000C70261EB5771039F4FEA816141EA921133
:1025400004EBCC044FEAD1374FEA826206FB07FC6A
:1025500042EA90124FEA80604FEA1C4C0CFB0BF7EA
:10256000D21B03FB0CF761EB07010CFB0EF7B0EB82
:10257000074072EB17420CFB08F734BFA2EB07428F
:10258000B2EB074261EB17414FEA8C554FEA9107D6
:1025900004EB9C2406FB07FC4FEA1C4C0CFB0BF7DE
:1025A000B0EBC74072EB573203FB0CF734BFA2EB22
:1025B000C742B2EBC74261EB57310CFB0EF7B0EBF1
:1025C000C70072EB57720CFB08F734BFA2EBC702CF
:1025D000B2EBC70261EB577115EB4C254FEA8161F5
:1025E00041EA92114FEA82624FEAD13742EA9012F1
:1025F00006FB07FC44F100044FEA80604FEA1C4CE4
:102600000CFB0BF7D21B03FB0CF761EB07010CFB78
:102610000EF7B0EB074072EB17420CFB08F734BF24
:10262000A2EB0742B2EB074261EB174115EB1C1519
:102630004FEA813141EA92414FEA823242EA9042C6
:102640004FEA80304FEA0C7644F1000448EA034335
:102650004EEA0B484FF0000EB2EB080C71EB03078B
:1026600024BF624639464EEB0E0E4FF0000B0018A9
:10267000524149414BEB0B0BB2EB080C71EB0307DA
:102680007BF1000B24BF624639464EEB0E0E4FF035
:10269000000B0018524149414BEB0B0BB2EB080CFD
:1026A00071EB03077BF1000B24BF624639464EEB0A
:1026B0000E0E51EA020718BF46F0010616EB0E7621
:1026C00055F1000254F1000103D5BDE88901BDE8D0
:1026D0000088BDE88901BDE80048B619524141EBC8
:1026E0000101A3F10103704780807F7E7D7C7B7AAE
:1026F0007978777676757473727171706F6E6E6DAE
:102700006C6C6B6A6A696868676666656464636353
:1027100062616160605F5F5E5E5D5D5C5C5B5B5AD9
:102720005A59595858575756565555555454535346
:1027300052525251515050504F4F4F4E4E4D4D4DA1
:102740004C4C4C4B4B4B4A4A4A49494948484847EC
:10275000474747464646454545444444444343432A
:10276000434242424241414146EA0646A3F5705384
:102770004FEA164646EA42564FEAD22242EA415210
:1027800010B54FEAD121A3F1010300F017F820F0B2
:10279000004000F1010C00F0004701EB0050114631
:1027A000BCF5006F40EA070000D210BD02484FF0B0
:1027B000000140EA070010BD0000F07F002B26D486
:1027C000770021D01CB54FEA370703B44FF0100053
:1027D0004FF010014FF000000FBCBDE810400BF1AE
:1027E000010BBBF1010F08BF5FEA170722BF12F10F
:1027F000010211F101014FF0004143F1000300F02B
:10280000004043EA00007047F9D35708DAE746EA88
:10281000064613F1400F4FEA16461FDD13F1200F55
:10282000DFBF16430A46002120335B42C8D0C3F104
:10283000200746EA064602FA07F74FEA164646EA36
:102840000706C3F1200722FA03F201FA07F721FA7B
:1028500003F14FF0000342EA0702B1E746EA02063D
:1028600046EA06464FEA164646EA0106BCBF46EA75
:102870000646360C4FF000034FF000024FF0000107
:102880009EE72DE9C048934630B491E8380007C868
:1028900031EA400C48BF34EA430C03D5FFF7C8FDCA
:1028A000FFF78CFFF0BCBDE800882DE9C0489346D7
:1028B00030B491E8380007C831EA400C48BF34EA28
:1028C000430C03D5FFF7B4FDFFF74EFFF0BCBDE8A6
:1028D00000882DE9C048934630B491E8380007C815
:1028E00010F0804F08BF13F0804F03D100F019F8AB
:1028F000FFF764FFF0BCBDE800882DE9C0489346AF
:1029000030B491E8380007C810F0804F08BF13F0CA
:10291000804F03D100F005F8FFF726FFF0BCBDE8BB
:10292000008820F07F4780EA030023F07F4C07EB0C
:102930000C03A3F57C5300F00040A3F1FE0392F0DA
:10294000000F00F0B38095F0000F00F077802DE9C4
:1029500001494FEA11404FEA144621EA004800FBC2
:1029600006FC24EA064708FB06F607FB08F800FB0E
:1029700007F718EB06484CEB164C4FEA124B18EBD6
:1029800007484FEA15464CEB174022EA0B4E0BFB6B
:1029900006FC25EA06470EFB06F607FB0EFE0BFBC0
:1029A00007F71EEB064E4CEB164C4FF000061EEBE5
:1029B000074E4CEB174B18EB0B0840F1000018EBDF
:1029C0000E0B58EB000840F100008F1A4FF0000189
:1029D0003CBFC943661B14BFB5EB040C00213CBFD0
:1029E000C943F61B4FEA17444EEA8E0E27EA044508
:1029F0004FEA1C4704FB07622CEA074C05FB07F76C
:102A00000CFB05F604FB0CFC16EB074642EB1742E9
:102A100016EB0C4642EB1C421BEB060658EB02027F
:102A2000414146EA9E0601D5BDE80189B6195241E9
:102A300041EB0101A3F10103BDE801894FEA14450F
:102A40004FEA114724EA054621EA074C05FB07F443
:102A500006FB07F70CFB06F105FB0CFC11EB07412D
:102A600044EB17444FEA124711EB0C4144EB1C4472
:102A700022EA074C05FB07F206FB07F70CFB06F6FC
:102A800005FB0CFC16EB074642EB174216EB0C4617
:102A900042EB1C456A1854F1000148BF7047B61953
:102AA000524141EB0101A3F10103704795F0000F82
:102AB00037D04FEA11424FEA144721EA024624EA8E
:102AC000074C02FB07F106FB07F70CFB06F402FBC1
:102AD0000CFC14EB074441EB17414FEA154714EB8C
:102AE0000C4441EB1C4125EA074C02FB07F506FBB1
:102AF00007F70CFB06F602FB0CFC16EB074645EB52
:102B0000174516EB0C4645EB1C42121951F100011A
:102B100048BF7047B619524141EB0101A3F10103CF
:102B200070474FEA14454FEA114724EA054621EA67
:102B3000074C05FB07F106FB07F70CFB06F24FF00D
:102B4000000605FB0CFC12EB074241EB174112EBB0
:102B50000C4251EB1C4148BF7047921841EB0101F8
:102B6000A3F101037047000070B51D4C04F118007B
:102B700094ED040A6168BCEEC00A10EE102A94EDD0
:102B8000020A01F03EFD94ED180A1648164DB5EE06
:102B9000C00AF1EE10FA94ED0D0A0CDDBCEEC00A8D
:102BA000006810EE101A416300220421284600F04C
:102BB0007FF901220DE0B1EE400A0068BCEEC00AC8
:102BC00010EE101A416301220421284600F070F92A
:102BD00000222846BDE87040082100F069B90000D5
:102BE0004C000020CC02002000000240FEE77047AD
:102BF00010B50C460122891C01F072FBD4F80C01BF
:102C0000002802D10A20C4F80C0110BD72B6FEE7FC
:102C10002DE9F0410446876D00F050F9064694F81E
:102C200035000025022806D08020606584F83450E5
:102C30000120BDE8F0812068016821F016010160E3
:102C40002068416921F080014161206C08B9A06CC5
:102C500020B12068016821F0080101602068016846
:102C600021F0010101600BE000F028F9801B05282C
:102C700006D92020606504F8345F03206070D8E72F
:102C800020680068C007EFD194F85C103F208840AE
:102C9000B86004F8345F012060700020C9E790F844
:102CA0003510022903D0802141650120704705219C
:102CB00080F835100068016821F0010101600020F2
:102CC000704700002DE9F84FDFF8B8A10022012578
:102CD0000AF1040B03264FF00F090BF1040E00BF9D
:102CE0000B6805FA02F42340A3426FD10F7907F075
:102CF0000307012F01D0022F16D187684FEA42083F
:102D000006FA08FC27EA0C07D1F80CC00CFA08FCFC
:102D10004CEA070CC0F808C04768A7430C79C4F315
:102D2000001494403C4344600C79E443A4070AD067
:102D3000C4684FEA420C06FA0CF7BC438F6807FAE6
:102D40000CF72743C7600C7904F00304022C12D15E
:102D5000D40800EB840CDCF820405707FF0E09FA7A
:102D600007F824EA0804D1F8108008FA07F848EABE
:102D70000408CCF8208004684FEA420C06FA0CF7ED
:102D8000BC430F7907F0030707FA0CF727430760E6
:102D90004C68E40070D53C4C276847F480472760B6
:102DA000246822F0030704F480440094374C07EBB6
:102DB000040CDCF8084897074FEA177809FA08F777
:102DC000BC43334FB84202D1002724E054E0314FD6
:102DD000B84201D101271EE02F4FB84201D102278E
:102DE00019E02E4FB84201D1032714E02C4FB8420E
:102DF00001D104270FE02B4FB84201D105270AE08B
:102E0000294FB84201D1062705E0284FB84201D129
:102E1000072700E0082707FA08F72743CCF80878C7
:102E2000DAF800405746D1F804C09C435FEACC3C36
:102E300000D51C433C60DBF800405F46D1F804C07D
:102E40009C435FEA8C3C00D51C433C60DEF80040AC
:102E50007746D1F804C09C435FEACC2C00D51C43D4
:102E60003C60084F0C373C68D1F804C09C435FEAD3
:102E70008C2C00D51C433C60521C102AFFF430AF50
:102E8000BDE8F88F003C014044380240003001406A
:102E9000000002400004024000080240000C024012
:102EA000001002400014024000180240001C0240C2
:102EB0000AB1816170470904FBE70000014880689E
:102EC00070470000300000200248816802781144F9
:102ED00081607047300000200B4810B5016841F454
:102EE00000710160016841F480610160016841F492
:102EF00080710160032000F071F8032000F006F8F3
:102F000000F024F8002010BD003C024070B50D4DCB
:102F100004464FF47A712878B1FBF0F00A49096849
:102F2000B1FBF0F000F00EFB48B9102C07D20022E4
:102F30002146501E00F032F800206C6070BD012068
:102F400070BD0000300000203C0000200B4882B023
:102F5000016841F480410160006800F48040009005
:102F60000648001F016841F080510160006800F0D0
:102F700080500090052002B000F030B84438024084
:102F8000002809DB00F01F02012191404009800068
:102F900000F1E020C0F8001170470000F0B40E4BC3
:102FA0001B680C46C3F30223C3F10705042D00D9A7
:102FB0000425191D072901D2002300E0DB1E01268C
:102FC00006FA05F1491E214099409E40761E1640A2
:102FD0003143F0BC01F0E7BE0CED00E0064900F023
:102FE000070208684FF6FF03184040EA0220034A30
:102FF00010430860704700000CED00E00000FA0587
:103000002DE9F0470E46050065D0DFF81481D8F8A9
:103010000000F7B200F00700B04207D288F8007055
:10302000D8F8000000F00700B04254D128683D4CA9
:10303000810712D5400703D5206840F4E050206096
:103040002878000703D5206840F46040206020689D
:10305000A96820F0F000084320602878C0072DD030
:10306000304968680839012812D0022813D0032893
:1030700011D00968890700292DDA216821F00301A0
:1030800001432160FFF71AFF814641F2883A0EE0C2
:1030900009688903EFE709688901ECE7FFF70EFF8C
:1030A000A0EB0901514502D90320BDE8F087206853
:1030B000696800F00C00B0EB810FEFD1D8F8001078
:1030C000404601F00701B14207D90770006800F0DF
:1030D0000700B04201D00120E7E72878400705D576
:1030E0002068E96820F4E050084320602878000751
:1030F00006D52068296920F4604040EAC1002060BC
:1031000000F038F82168084AC1F30311515CC84047
:103110000649086006480068FFF7F8FE0020C4E78B
:10312000003C0240083802409E5700083C00002046
:10313000340000200448054900680968044AC1F3C6
:103140008221515CC84070473C0000200838024092
:10315000AE5700080448054900680968044AC1F3ED
:103160004231515CC84070473C00002008380240A2
:10317000AE570008154810B5006810F00C0214484E
:1031800013D01449042A0FD0082A0ED10F4C241F43
:103190002268236802F03F025B0207D52068C0F373
:1031A0008810A0FB010106E0084610BD2168C1F3AC
:1031B0008811A1FB00010023FDF770F82168C1F31D
:1031C0000141491C4900B0FBF1F010BD0838024034
:1031D0000024F40040787D012DE9F84F04006ED002
:1031E0002078DFF84C93C007A9F104054AD009F113
:1031F00004000168C1F38101012908D00068C0F30F
:10320000810002280AD1D9F80000400206D52868BA
:10321000800337D560680028E1D033E06068B0F5FE
:10322000803F10D0B0F5A02F286810D020F4803057
:103230002860286820F4802028606068A8B1FFF723
:103240003DFE06460DE0286840F48030F4E740F487
:1032500080202860F7E700BFFFF730FE801B64285E
:1032600073D828688003F7D50CE0FFF727FE0646E1
:1032700005E000BFFFF722FE801B6428F0D8286815
:103280008003F7D42078DFF8AC8280074FF0000A83
:103290003ED5A748001D016811F00C0F08D000684A
:1032A000C0F3810002280BD1D9F80000400207D4F6
:1032B0002868800716D5E068012800D112E033E1C4
:1032C000E068B8B10120C8F80000FFF7F7FD064636
:1032D00005E000BFFFF7F2FD801B0228C0D8286878
:1032E0008007F7D52868216920F0F80040EAC1007E
:1032F00028600DE0C8F800A0FFF7E0FD064604E0F6
:10330000FFF7DCFD801B02281FD828688007F7D450
:103310002078000722D5864F87486169703771B1E0
:1033200001210160FFF7CAFD064604E0FFF7C6FD74
:10333000801B022809D838688007F7D50EE0C0F84E
:1033400000A0FFF7BBFD064605E082E0FFF7B6FDF3
:10335000801B02287DD838688007F7D42078400782
:1033600068D5DFF8CCB100270BF13C0BDBF800008F
:10337000C0000BD4DBF8001041F08051CBF80010F6
:10338000DBF80000012700F0805000906B4E3068A1
:10339000C00510D4306840F480703060FFF78EFDB7
:1033A000009005E0FFF78AFD0099401A022850D8E6
:1033B0003068C005F6D55E4EA0686C3601280FD087
:1033C0000528306810D020F001003060306820F00F
:1033D00004003060A068B8B1FFF770FD00900FE006
:1033E000306840F00100F4E740F004003060F7E797
:1033F000FFF764FD0099411A41F28830814266D896
:1034000030688007F4D50EE0FFF758FD009007E024
:10341000FFF754FD0099411A41F28830814256D895
:1034200030688007F4D42FB1DBF8001021F0805110
:10343000CBF80010A069C8B33D49091D0968C1F364
:10344000810102294AD00228504607D0C8F86000FE
:1034500000E03CE0FFF732FD04463BE04746C8F899
:103460006000FFF72BFD064605E000BFFFF726FDD5
:10347000801B02282BD828688001F7D4D4E90701E3
:103480000843A16A2E4A490802EB0141626A41EAF7
:103490008211084394F82C1040EA0161C9F8001029
:1034A00001203866FFF70AFD044606E03EE000BF53
:1034B000FFF704FD001B022809D828688001F7D512
:1034C00034E000BFFFF7FAFC001B022802D90320FA
:1034D000BDE8F88F28688001F4D427E00128F7D0F0
:1034E000D9F80000E26900F4800191421CD1226AFF
:1034F00000F03F01914217D147F6C071626A014066
:10350000B1EB821F10D1A26A4FF0FF3300F44031BB
:1035100003EB5202B1EB024F06D194F82C1000F0ED
:103520007060B0EB016F01D00120D1E70020CFE740
:103530000438024000004742800E474200700040BD
:103540000000FFFF10B5401EB0F1807F01D30120C5
:1035500010BD4FF0E02460610F21601701F023FCE3
:103560000020A06107202061002010BD7047704737
:1035700010B590F83C20012A22D0012280F83C208E
:10358000CA688C6822F4407222434C6822F480623C
:1035900022430C6822F4006222430C6922F4805218
:1035A00022434C6922F400522243C969002322F4C9
:1035B00080420A4301684A6480F83C30002010BD14
:1035C000022010BD70B590F83C20012A32D00124B1
:1035D00080F83C40022280F83D2003685A689D68CC
:1035E00022F070060A6832435A60134B02689A420E
:1035F00014D0B2F1804F11D0104B9A420ED0104B24
:103600009A420BD00F4B9A4208D00F4B9A4205D0EA
:103610000E4B9A4202D00E4B9A4204D1496825F0D3
:1036200080031943916080F83D40002180F83C10F0
:10363000084670BD022070BD00000140000400403B
:1036400000080040000C0040000401400040014020
:103650000018004010B5040003D094F83D0010B1EC
:1036600007E0012010BD002084F83C00204600F057
:103670001FF8022084F83D00211D206801F0D2F8D7
:10368000012084F8460084F83E0084F83F0084F866
:10369000400084F8410084F8420084F8430084F834
:1036A000440084F8450084F83D00002010BD00006F
:1036B00008B500680B49884212D10B48016841F0F7
:1036C000800101600068012200F080000090114636
:1036D0002C20FFF763FCBDE808402C20FFF750BC0E
:1036E00008BD0000001C00404038024090F83D102A
:1036F000012901D001207047022180F83D100168A6
:10370000CA6842F00102CA6000681149884214D0B8
:10371000B0F1804F11D00F4988420ED00E49884237
:103720000BD00E49884208D00D49884205D00D497A
:10373000884202D00C49884204D1816801F0070117
:10374000062903D0016841F00101016000207047A3
:10375000000001400004004000080040000C004050
:103760000004014000400140001800402DE9F041F4
:103770000D46040003D094F83D0018B108E0012084
:10378000BDE8F081002084F83C00204600F040F8BD
:10379000022084F83D002068816844F207029143CA
:1037A0008160211D206801F03DF8226890689169D0
:1037B000166A2B68AF69034340F20330814341EA44
:1037C0000721A868EF6908434FF6FC418843E96880
:1037D00040EA0720014328692F6A000140EA0730C8
:1037E000084369686D6926F0AA0646EA051529436B
:1037F00093602268906154F8460B0162012004F83E
:103800001F09E0752076E0762077A0750020B7E7E5
:1038100010B586B0044614216846FCF7EEFE226817
:10382000294C002129480223A24224D1274A1432DC
:10383000146844F001041460126802F00102059259
:10384000026842F010020260006800F0100005906B
:103850004FF420600090CDE901310120CDE9031043
:1038600069461B48FFF72EFA012200211920FFF7B5
:1038700095FB192024E0174CA24223D1134A1032A1
:10388000146844F002041460126802F00202059207
:10389000026842F001020260006800F00100059039
:1038A000C0200090CDE90131CDE9031369460A48F3
:1038B000FFF708FA012200211D20FFF76FFB1D20F2
:1038C000FFF75EFB06B010BD00000140303802403B
:1038D00000100240000400400000024070B590F863
:1038E0003E60044690F83F5090F8423090F84320F4
:1038F000022021B104290ED0012E1BD114E0012E8B
:1039000018D1012B16D184F83E0084F84200012220
:103910000021206820E0012D0CD1012A0AD184F871
:103920003F0084F8430014E0012D03D1012B01D1A5
:10393000012A01D0012070BD84F83E0084F83F00C8
:1039400084F8420084F8430001220021206800F03E
:10395000CDFF01220421206800F0C8FF2068016823
:1039600041F001010160002070BD704770B5044650
:10397000006801694FF00005C943890715D4C16883
:10398000C943890711D4E91E01610120207720680D
:1039900080698007204602D0FFF7E7FF04E000F0CF
:1039A000C3F8204600F070F9257720680169C94303
:1039B000490717D4C168C943490713D46FF00401FC
:1039C0000161022020772068806910F4407F204642
:1039D00002D0FFF7CAFF04E000F0A6F8204600F08E
:1039E00053F9257720680169C943090716D4C168CE
:1039F000C943090712D46FF0080101610420207740
:103A00002068C0698007204602D0FFF7AEFF04E0BF
:103A100000F08AF8204600F037F925772068016920
:103A2000C943C90617D4C168C943C90613D46FF086
:103A300010010161082020772068C06910F4407FE0
:103A4000204602D0FFF791FF04E000F06DF8204619
:103A500000F01AF9257720680169C943C90708D120
:103A6000C168C943C90704D1891E0161204600F01D
:103A700071F920680169C943090609D4C168C943BD
:103A8000090605D46FF0800101612046FFF76EFD45
:103A900020680169C943490609D4C168C943490678
:103AA00005D46FF040010161204600F09DFA2068C6
:103AB0000169C94389060BD4C168C943890607D483
:103AC0006FF0200101612046BDE87040FFF74FBD57
:103AD00070BD000010B586B0044614216846FCF79E
:103AE0008CFD0E492068884215D10D4800210268DE
:103AF00042F004020260006800F004000590C0205B
:103B000000900220CDE901010320CDE903106946B0
:103B10000448FFF7D7F806B010BD000000040140CC
:103B20003038024000080240704770B5044690F8F3
:103B30003C000D4601280AD0012084F83C0042B127
:103B4000042A18D0082A2AD00C2A4DD139E00220A4
:103B500070BD206800F0D8FE2068816941F008013E
:103B600081612068816921F0040181612068816997
:103B70002A69114311E0206800F0F6FE206881698F
:103B800041F4006181612068816921F48061816173
:103B9000206881692A6941EA0221816124E0206864
:103BA00000F018FF2068C16941F00801C161206878
:103BB000C16921F00401C1612068C1692A6911430A
:103BC00011E0206800F03AFF2068C16941F400610B
:103BD000C1612068C16921F48061C1612068C16947
:103BE0002A6941EA0221C161002084F83C0070BDCD
:103BF00010B5040003D094F83D0010B107E0012097
:103C000010BD002084F83C00204600F01FF8022080
:103C100084F83D00211D206800F004FE012084F896
:103C2000460084F83E0084F83F0084F8400084F8A1
:103C3000410084F8420084F8430084F8440084F88A
:103C4000450084F83D00002010BD000008B5006864
:103C50000B49884212D10B48016841F00201016012
:103C60000068012200F00200009011462C20FFF7AE
:103C700095F9BDE808402C20FFF782B908BD000087
:103C800000040140443802407047000010B504466B
:103C9000022249B104290ED0082913D094F841001A
:103CA000012816D0012010BD94F83E000128F9D15A
:103CB00084F83E200FE094F83F000128F2D184F808
:103CC0003F2008E094F840000128EBD184F8402020
:103CD00001E084F841200122206800F007FE164927
:103CE0002068164A884201D0904203D1436C43F4C5
:103CF000004343642068884213D0B0F1804F10D055
:103D00000F4988420DD00F4988420AD00E49884297
:103D100007D0904205D00D49884202D00C49884214
:103D200004D1816801F00701062903D0016841F040
:103D300001010160002010BD0000014000040140AD
:103D40000004004000080040000C0040004001401A
:103D5000001800402DE9F0412DED028B01688148EB
:103D6000814C824F0068824E04F1640581427DD10E
:103D70008049814800F0DBFF3968486ACA6AA0EBD5
:103D8000520003B23068426AC66AC96AA2EB5602A0
:103D9000B4F90C6012B24E4303EB56016160B5F901
:103DA0000C30C06A434302EB5300686022688A1AF1
:103DB00000EE102AB8EEC00A9FED708AC0EE080A25
:103DC0009FED6F0A60EE800AC4ED040A2A68801A2B
:103DD00000EE900AB8EEE01AC1EE080A20EE800A62
:103DE00085ED040A00EE101AF8EEC00A80EE880A8B
:103DF00010EE100A01F0D8FB41EC100B61A053EC5F
:103E0000102BFCF7C3FA6068206068682860594886
:103E10004178002949D00021417086305C4A5DA17B
:103E20000746FCF783FB5A4E361F012841D006F1A6
:103E300008025AA13846FCF779FB01283ED006F16A
:103E40000C0259A13846FCF771FB012841D006F15C
:103E5000100257A13846FCF769FB01283ED006F155
:103E6000140255A13846FCF761FB00E054E001283C
:103E700043D006F11C0252A13846FCF757FB01283B
:103E800040D006F1200250A13846FCF74FFB012834
:103E90003DD006F118024EA13846FCF747FB012839
:103EA00003D196ED060A85ED050ABDEC028BBDE84F
:103EB000F08196ED010A84ED0F0AF6E794ED010A10
:103EC000D6ED020AB8EEC00A00EE880A84ED020AB6
:103ED000EBE796ED030A84ED100AE6E7306901F09E
:103EE00063FB41EC100B3DA053EC102BFCF74EFA9A
:103EF00096ED040A84ED110AD7E796ED050A85EDE3
:103F0000060AD2E796ED070A85ED070ACDE796ED9A
:103F1000080A85ED080AC8E73A6847F2305091422E
:103F20000ED1536A10498342B1F90C1001D2491CD9
:103F300003E0536A834201D9491EA1815062B4E76C
:103F400032689142B1D1536A074964318342B1F971
:103F50000C1001D2491C03E0536A8342EED9491E7A
:103F6000A981EBE7140300204C0000203C02002054
:103F7000840200202C0100205C0300200000A544E6
:103F800000803B456379636C653A25660D0A000045
:103F9000080000206B703A2566000000747370659D
:103FA00065643A25660000006B693A2566000000EA
:103FB0006B643A25660000006B70323A256600009B
:103FC0006B69323A256600006B64323A2566000060
:103FD000747370656564323A25660000216B643A3B
:103FE00025660D0A0000000070477047704700000A
:103FF000F8B5026804461068D168536910F00F0FD5
:104000004FF0000554D003F0010601F490773743D8
:104010005FD0C20705D0CA0503D5226C42F0010269
:104020002264420705D5DA0703D0226C42F002026F
:104030002264820705D5DA0703D0226C42F004021D
:104040002264020707D501F02002324303D0226C1C
:1040500042F008022264226C002A35D0800604D582
:10406000880602D5204600F031FD20684069216CA9
:10407000C0F3801001F008010143204625D000F074
:104080000DFD2068416949061BD5416921F04001B9
:104090004161A06BA8B159490165A06BFEF7FFFD16
:1040A000002811D0A06B016D01B0BDE8F0400847B9
:1040B00083060ED58B060CD52046BDE8F84000F0EF
:1040C00005BD2046FFF792FFF8BDFFF78FFF25647F
:1040D000F8BD266B2023012E53D1C60651D5CE063E
:1040E0004FD5106850680090506940062BD5A16BE1
:1040F000086840680004000CEAD0A68D8642E7D923
:10410000E085C869B0F5807F18D0D06820F4807051
:10411000D0602068416921F0010141612068416956
:1041200021F04001416184F83E3025632068C16878
:1041300021F01001C160A06BFEF76AFDA08DE18D3A
:10414000401A81B219E0A08DE18D401A81B2E08D54
:104150000028BDD00029BBD0D06820F49070D0607A
:104160002068426922F00102426184F83E302563F2
:104170002068C26822F01002C2602046FFF735FFB7
:10418000F8BD05062BD50D0629D594F83D0021284C
:10419000F6D1A068B0F5805F01D12069B0B1206A86
:1041A000411C2162216800784860E08C401E0004B8
:1041B000000CE084E4D12068C16821F08001C16076
:1041C0002068C16841F04001C160F8BD206A0088E4
:1041D000C0F308005060206A801C2062E5E74006BA
:1041E000F3D54806F1D5D168204621F04001D160D1
:1041F00084F83D3000F09AF8F8BD00008D4A0008C0
:1042000070B5040004D094F83D00002510B106E01C
:10421000012070BD84F83C50204600F023F8242093
:1042200084F83D002068C16821F40051C160204637
:1042300000F0A4FC2068016921F49041016120682C
:10424000416921F02A0141612068C16841F40051AF
:10425000C1602564202084F83D0084F83E000020E1
:1042600070BD000010B586B0044614216846FCF706
:10427000C4F918492068884229D1174800210268EA
:1042800042F010020260006800F010000590124831
:104290001438026842F001020260006800F0010078
:1042A00005904FF4C06000900220CDE90101032089
:1042B00003900720049069460848FEF703FD00229A
:1042C00011462520FEF76AFE2520FEF759FE06B0AE
:1042D00010BD0000001001404438024000000240C0
:1042E00090F83E30202B0ED159B152B190F83C30AD
:1042F000012B08D0012380F83C300023036300F039
:10430000C3BC0120704702207047000000680449C8
:10431000884203D10349044800F0D8BC704700002C
:10432000001001402C0100205C0300207047FEE7D4
:1043300030B587B014216846FCF75FF916480024B1
:10434000016841F001010160016801F0010105917E
:10435000016841F010010160016801F01001059150
:10436000016841F00401016000680C4D00F0040098
:10437000059000223C212846FEF79AFD3C20009043
:104380000120CDE901040220039069462846FEF78A
:1043900099FC07B030BD00003038024000000240F8
:1043A0000B4810B50949016053214160002144F6D2
:1043B0002062C0E9021201618161FFF74BF9002818
:1043C00003D0BDE81040FEF721BC10BD001C00402A
:1043D0001403002010B58CB024216846FCF70DF9B9
:1043E00000241648099414490A94C0E900144EF6B2
:1043F0006021C0E902410461446184610320CDE988
:1044000000040120CDE902040494CDE9054007949D
:1044100069460A480894FFF7A9F908B1FEF7F6FBC8
:10442000099409A905480A94FFF7CCF8002801D09F
:10443000FEF7ECFB0CB010BD000001403C02002078
:1044400010B58CB024216846FCF7D7F80024164834
:10445000099414490A94C0E900144EF66021C0E999
:104460000241046184610320CDE900040120CDE90B
:1044700002040494CDE90540079469460A4808946B
:10448000FFF774F908B1FEF7C1FB099409A90648C2
:104490000A94FFF797F8002801D0FEF7B7FB0CB09D
:1044A00010BD0000000400408402002010B592B04E
:1044B00000240F941C2168461094FCF79EF82021DC
:1044C00007A8FCF79AF82448224901605321C0E963
:1044D00001144FF47A71C0E9031444618461FFF759
:1044E00087FB08B1FEF792FB0F940FA91A481094AE
:1044F000FFF768F808B1FEF789FB6020CDE90004FA
:104500000294039404940594002269461248069488
:10451000FFF70BFB08B1FEF779FB042269460E4852
:10452000FFF703FB08B1FEF771FB079408940994A9
:104530004FF400500A94CDE90B4007A906480E94A9
:10454000FFF716F808B1FEF761FB0348FFF7C2FA60
:1045500012B010BD00040140CC0200200C4810B580
:104560000A4901604FF4E1314160002181600C2271
:10457000C160C0E904128161C161FFF741FE0028FA
:1045800003D0BDE81040FEF741BB10BD0010014054
:104590005C030020FEE700002DE9F041134F0446C4
:1045A0000D46386898461646C16841F00101C16061
:1045B0000F480068C16841F00101C1600D48FFF774
:1045C00095F8396847F2305048620B48002100F1F5
:1045D0006402818100F1C803918183E870019FED3D
:1045E000070A80ED0B0ABDE8F08100003C020020C4
:1045F00084020020140300204C0000200000000072
:10460000FEE770B500EE901A04461546F8EEE00A93
:10461000243000F015F800EE905A94ED100A204670
:10462000F8EE600A00F00CF894ED070A84ED120A27
:1046300070BDC0ED061A80ED082A80EC030A7047B1
:1046400070B530EE600A04462B4D80ED030AD0EDC4
:10465000000A60EE200AC0ED070A10EE100A00F012
:10466000A3FF41EC100BFBF77FFF9FED241B51ECE8
:10467000100B53EC112B00F061FF02D200202880B8
:104680000BE00120288094ED050AD4ED030A94ED97
:10469000011A00EE810A84ED050A288894ED070AC4
:1046A00000EE900A94ED051AD4ED031AF8EE600AB4
:1046B00000EE810AD4ED040A94ED021A71EEE00ACC
:1046C00000EE810A84ED070AD4ED080AB1EE601A03
:1046D000B4EEC10AF1EE10FA02D8B0EE410A06E0DB
:1046E000B4EEE00AF1EE10FA01DBB0EE600A84ED00
:1046F000070AC4ED041A70BD00000020000000008D
:104700000000694010B500210E48FFF7BFFA0421F0
:104710000C48FFF7BBFA0B4800219038FFF7DEF892
:10472000084804219038FFF7D9F806480021483896
:10473000FFF7D4F803480421BDE810404838FFF7DC
:10474000CDB80000CC02002070477047FEF7BCBB1C
:1047500030B593B030216846FBF74FFF14210CA809
:10476000FBF74BFF1C480024016841F080510160B9
:10477000006800F0805011901848016841F48041B1
:1047800001600068022500F4804011900120039030
:104790001020009506950490CDE90740A820CDE9AA
:1047A000090504200B906846FEF716FD08B172B6A5
:1047B000FEE70F20CDE90C054FF48050CDE90E4007
:1047C00002210CA81094FEF71BFC002801D072B641
:1047D000FEE713B030BD00004038024000700040DA
:1047E0000248016841F470010160704788ED00E003
:1047F0000148FFF7BBB800003C0200200148FFF76A
:10480000B5B800008402002010B50448FFF7AEF8E8
:10481000BDE810400248FFF7A9B80000CC02002014
:1048200014030020F0B50268254C264D264E274F74
:10483000274B4FF0804CA04209D0604507D0A842DA
:1048400005D0B04203D0B84201D0984204D122F042
:10485000700E4A6842EA0E02A0421BD0604519D091
:10486000A84217D0B04215D0B84213D0984211D008
:10487000184DA8420ED0184DA8420BD0174DA84293
:1048800008D0174DA84205D0164DA84202D0164DAB
:10489000A84203D122F44075CA682A434D6922F028
:1048A00080022A4302608A68C2620A688262A04269
:1048B00001D0984201D10969016301214161F0BD34
:1048C000000001400004004000080040000C0040CF
:1048D0000004014000400140004401400048014004
:1048E00000180040001C00400020004010B501F0FE
:1048F0001F030121046A99408C430462016A9A40B3
:104900001143016210BD0000F0B5026A22F00102FD
:104910000262036A42688469124E24F073050C68CF
:104920002C4323F002058B682B430D4DA84201D088
:10493000B04205D123F00807CB683B4323F00403C2
:10494000A84201D0B04205D14D6922F4407215430E
:104950008A692A4342608461496841630362F0BD09
:104960000000014000040140F0B5026A22F010028C
:104970000262026A436884690D6824F4E64444EAEA
:1049800005248D6822F0200242EA05120F4D104ED8
:10499000A84201D0B04206D1CF6822F0800242EA9C
:1049A000071222F04002A84201D0B04207D14D695F
:1049B00023F4406343EA85038D6943EA850343603A
:1049C0008461496881630262F0BD0000000001401B
:1049D00000040140F0B5026A22F480720262026AA9
:1049E0004368C46922F4007224F073050C68124E07
:1049F0002C438D6842EA05220E4DA84201D0B042F8
:104A000006D1CF6822F4006242EA072222F48062D3
:104A1000A84201D0B04207D14D6923F4405343EA84
:104A200005138D6943EA05134360C4614968C16396
:104A30000262F0BD000001400004014030B5026A8E
:104A400022F480520262046A4268C3690D6823F44A
:104A5000E64343EA05238D6824F4005444EA053410
:104A6000084DA84202D0084DA84204D14D6922F455
:104A7000804242EA85124260C3614968016404626F
:104A800030BD0000000001400004014010B5806B03
:104A90000021C185C184FFF7A9FA10BD0168CA6869
:104AA00022F49072CA6001684A6922F001024A61E8
:104AB000016B012904D10168CA6822F01002CA60A2
:104AC000202180F83E1000210163704710B5044694
:104AD00090F83E00222801D0022010BDA1684FF4BA
:104AE0008052914201D1206920B1A06A91421BD02D
:104AF00049B10AE02168A06A4968C1F30801018050
:104B0000A06A801C08E0216971B12168496801F040
:104B10007F010170A06A401CA062E08D401E00046D
:104B2000000CE08503D01CE021684968F1E72068AB
:104B3000C16821F02001C1602068C16821F4807142
:104B4000C1602068416921F001014161202084F8A1
:104B50003E00206B012806D02046FFF7D7FB00203F
:104B60002063002010BD2068C16821F01001C160E1
:104B7000A18D2046FFF739FAF1E7000070B5044631
:104B800000680169E26821F4405111430161216923
:104B9000A068E26908436169114308432168CA6853
:104BA00049F20C639A430243CA6020684169A269D2
:104BB00021F440711143416131492068884202D09B
:104BC0003049884202D1FEF7C5FA01E0FEF7B2FA99
:104BD000E2690023192164253226B2F5004F62688C
:104BE00028D0A0FB0101930F9200FBF757FB014671
:104BF000B0FBF5F06FF01802504301EB800006EBBC
:104C00000010B0FBF5F000F0F002B1FBF5F002EBA4
:104C10000012B1FBF5F06FF01803584301EB800070
:104C200006EB0010B0FBF5F000F00F002168104417
:104C3000886070BDA0FB010192185B41FBF72EFB61
:104C40000146B0FBF5F00201B1FBF5F06FF018037F
:104C5000584301EB800006EBC000B0FBF5F000F01C
:104C6000F80002EB4002B1FBF5F0584301EB800085
:104C700006EBC000B0FBF5F000F00700D6E700003F
:104C8000001001400014014081628285C28500212C
:104C90000164222280F83E2080F83C100168CA6836
:104CA00042F48072CA6001684A6942F001024A61B6
:104CB0000068C16841F02001C16000207047000019
:104CC0000148FFF795B900005C03002070B501258D
:104CD0000C4606460D70FEF7F1F8C4F80801A178FD
:104CE00094F884002218401C84F88400117194F810
:104CF00084007F2814D394F8842004F18600211DB9
:104D00000646FBF735FC14F8840F6070217800200C
:104D1000885504F8835C04F8840C2070012070BD71
:104D20000122A11C3046FFF7DBFA002070BD70B5F0
:104D300008780C46E0B1FEF7C1F8D4F80811401A23
:104D40000A2815D994F8842004F18600211D05460F
:104D5000FBF70EFC14F8840F607021780020485592
:104D6000012104F8831C04F8840C2070084670BDEF
:104D7000002070BDFEE703B401984100009850EA9E
:104D8000C12018BF04204A0D18BF40F0010040F2B6
:104D9000FF72B2EB515F08BF40F00200012808BF6C
:104DA000052002B070470907090E002804DB00F156
:104DB000E02080F80014704700F00F0000F1E020C0
:104DC00080F8141D7047000030B540F2FF742DEDDF
:104DD000048BF0EE608A18EE901A85B0B0EE408A2F
:104DE0009FED2B9B05468DED008B34EA115147D08A
:104DF00053EC192B51EC180B00F02AFA40D02A463C
:104E000051EC180B00F07FFC41EC180B18EE900AE7
:104E10008DED008B34EA10501CD053EC192B51EC63
:104E2000180B00F015FA2BD10220FBF715FC00F04F
:104E300043F810EE901A18EE900A8DED020B8DEDEE
:104E4000008B61F31E0003909DED020B05B0BDECDD
:104E5000048B30BD0220FBF7FFFB00F01DF810EEC5
:104E6000901A18EE900A8DED020B8DED008B61F318
:104E70001E0003909DED020B05B0BDEC048B30BD10
:104E800005B0B0EE480AF0EE680ABDEC048B30BD08
:104E900000000000000000009FED050B10B553EC72
:104EA000102B51EC100B00F04BFA41EC100B10BD25
:104EB00000000000000000709FED050B10B553ECE2
:104EC000102B51EC100B00F03BFA41EC100B10BD15
:104ED000000000000000001030B504462DED048BEA
:104EE00081B06A4691ED008B51EC180B00F06CF824
:104EF00000989FED239B7E300090002821DC53EC2E
:104F0000192B51EC180B00F0A3F91AD0002140F630
:104F100008004FF00000054651EC180B00F052F964
:104F200008EE100A40F6080005EA00014FF0000004
:104F3000B5EEC08AF1EE10FA04BF0220FBF78CFB3D
:104F400017E00098FF280EDB0220FBF785FB53ECEF
:104F5000192B51EC180B00F0F1FA8CBF9FED0A8A67
:104F60009FED0A8A05E051EC180B00F02BF908EED2
:104F7000100A84ED008A01B0BDEC048B30BD000046
:104F80000000000000000000000080FF0000807FA3
:104F900010B5044690ED000B0846FFF715FF84EDB1
:104FA000000B10BD30380A2801D2012070470020C4
:104FB0007047704703490A685206FCD5C2B24A607E
:104FC000704700000010014010B582B01446CDE9D2
:104FD00000010023009A2360194B21F00040984201
:104FE0002ADA024328D0B0F5801FA8BF226810DA61
:104FF0009FED150B53EC102B9DED000B51EC100B9E
:1050000000F09EF9CDE900016FF0350221F000407B
:1050100022600F4B6FF31E5103EB205010442060B1
:1050200041F0FF5040F0005001909DED000B00BF9B
:1050300002B051EC100B10BD9DED000BF8E7000025
:105040000000F07F0000000000000000000050435E
:1050500002FCFFFF2DED088BFDF73EFFFDF72EFF55
:105060000446FFF775FBFFF763F9FFF7B3F9FFF7A6
:10507000E7F9FFF71BFAFFF793F9FFF76FFAFFF76E
:1050800041FB2E492E48FDF7B3FD012300211A46AE
:105090000846FFF781FADFED2B8A9FED2B9A9FEDF3
:1050A0002B8ADFED2B9A9FED2BAAB0EE682AF0EE4B
:1050B000491AB0EE481AF0EE690AB0EE4A0A2648DC
:1050C000FFF7B7FADFED25AA9FED25BA2248B0EE2B
:1050D000682AF0EE491AB0EE6A1AF0EE480AB0EE0D
:1050E0004B0A2430FFF7A5FAB0EE682AF0EE491A11
:1050F000B0EE481AF0EE690AB0EE4A0A1948FFF716
:1051000098FA1848B0EE682AF0EE491AB0EE6A1A1A
:10511000F0EE480AB0EE4B0A2430FFF78AFA12A0EC
:10512000FBF734F9FDF7CAFE001B2828FAD3FDF778
:105130001BFDFDF7C3FE0446F4E700002C01002030
:105140005C03002000007A440000C8420000000018
:105150009318843E3333A34064000020CDCC4C3EF2
:105160009A99993EC80000202E2E2E0010B50029D5
:105170000AD00878002807D005487844FCF744FE98
:10518000002801D0002010BD0248784410BD000066
:10519000160700000E07000010B500290AD0087895
:1051A000002807D005487844FCF72EFE002801D0DF
:1051B000002010BD0248784410BD00000607000022
:1051C000FE06000021F00042A2F16052B2F5801FFD
:1051D00001F0004328BFD2F17F6C0BD95FEA001CBD
:1051E00043EAC20242EB507018BF704728BF20F05C
:1051F00001007047B2F5801FBCBF184670474FEAE8
:10520000410C1CF5001F02D2084600F043BA70B5ED
:1052100000F040F900000089FFF7F6BF4FF00040B2
:10522000A0F580007047000002494FF0000000F038
:1052300038BA00BF0000F87F491058BFC1F14041A3
:105240005B1058BFC3F140438B42EFF300807047BF
:1052500051EA030C17D41CF5801F58BFBCF5801F02
:1052600000F10680994218BF704708BF904270470E
:1052700007D711F5801F58BF13F5801F19D4994225
:105280007047894270471CF5801F08D5BCF5801F08
:10529000F7D58B4218BF704708BF824270474FF462
:1052A000001C1CEB410F38BF1CEB430F01D28B429B
:1052B000704770B500F0EEF8922449004FF00051AD
:1052C0004FF08053FFF7B8BF51EA030C17D41CF519
:1052D000801F58BFBCF5801F00F10680994218BF9F
:1052E000704708BF9042704707D711F5801F58BF1D
:1052F00013F5801F19D499427047894270471CF5F5
:10530000801F08D5BCF5801FF7D58B4218BF7047AA
:1053100008BF824270474FF4001C1CEB410F38BF9E
:105320001CEB430F01D28B42704770B500F0B2F80E
:10533000922449004FF000514FF08053FFF77CBF9B
:10534000DFF848C170B51CEA111E1EBF1CEA131518
:105350009EEA0C0F95EA0C0F00F06F8081EA0304BF
:1053600023EA4C134EEAD47E21EA4C1141F4801119
:1053700043F48013AE44A1FB024CA0FB0365AEF1E5
:105380007F7E361955EB0C05A1FB034C4CF1000355
:10539000A0FB021C16EB0C06654153F10003094209
:1053A00018BF46F0010613F4007F0BD14FEA03311A
:1053B0004FEA0530340341EA155140EA16506FF0C8
:1053C00003020AE04FEAC3214FEAC520F40241EA92
:1053D000555140EA56506FF0020202EB2E4201EBAB
:1053E000025585EACE710AD05FEA440C18BF24F05A
:1053F000004450F1000041F1000120EAD47040F275
:10540000FE7C624500D270BDA84214BF4FF08044BC
:105410004FF04044002E08BF0024BEF1806FA8BFAB
:10542000A1F1C041BDE8704080F282804FF00000E1
:1054300001F1C04101F0004170479EEA0C0F0CEAF7
:10544000131518BF95EA0C0F06D04FF0000081EA43
:10545000030E0EF0004170BD00F01CF88900013E03
:1054600000F007B800F009B84FEA430C5FEA5C5C53
:1054700008D081EA030100F05BB84FEA410C5FEA13
:105480005C5CF6D14FF00000014970470000FF0757
:105490000000F87F0EF1020E2EF0030E5EF8046B92
:1054A000364205D4012A43EB030515F5001F12D837
:1054B000012841EB010C1CF5001F0CD80ED14FEA5E
:1054C000D17C15F5001F0CEB4C0C0CF1020C08BF45
:1054D0004CEBD37C04E04FF0080C01E04FEAD37CA6
:1054E0000CEB4C0526FA05F606F00706B6F1040C9F
:1054F00006D20EEB860CBDE870404CF0010C604704
:10550000DFE80CF0090B02024FF000414FF0000001
:10551000A1F5002170BD19461046012851EB010488
:1055200018BFD4F5001484BF002001F0004170BD05
:105530000808A0F500114FEA3101704753EA010C49
:1055400017D41CF5801F58BFBCF5801F00F10680E2
:105550008B4218BF704708BF8242704707D713F5C8
:10556000801F58BF11F5801F19D48B4270479B4292
:1055700070471CF5801F08D5BCF5801FF7D59942F0
:1055800018BF704708BF904270474FF4001C1CEBD7
:10559000430F38BF1CEB410F01D2994270470FB443
:1055A0000CBC03BCFFF7C1BE43004FEAD30C4FEA6B
:1055B0003C0C43401FBF40070CF1605113F0FE4FFD
:1055C00070471CF0006F03D100200CF000417047C1
:1055D0000CF0004343EA507010B540EACC0000F0F4
:1055E0000EF800BF000000924FEA0001FFF7A0BFD5
:1055F0004FF000414FF00000A1F5002170470EF17F
:10560000020E2EF0030E5EF8044B244204D44FEA3F
:105610004102B2F17F4F11D84FEA4003B3F17F4FFF
:105620000CD80ED14FEAD07CB2F17F4F0CEB4C0C72
:105630000CF1020C08BF4CEBD17C04E04FF0080CDD
:1056400001E04FEAD17C0CEB4C0324FA03F404F0A4
:105650000704B4F1040C06D20EEB840CBDE8104034
:105660004CF0010C6047DFE80CF0070802024FF035
:105670000040A0F5800010BD0846420018BFD2F1DE
:10568000807288BF00F0004010BD4FF04070E1EE26
:10569000100A7047FF2141EAD050C0057047FBF760
:1056A000B8B80CF00F03092B08BF082000F05F808A
:1056B0000A2B0BD0082B18BF704708BF1CF0400FF7
:1056C0000AD04FF000004FF0000170471CF0400F6F
:1056D00018BF4FF0004070471CF0100F08D020F0AA
:1056E000704300F07F4242EAD3014FEA43707047B3
:1056F00000F0604021F07F4242EA000201F07F406A
:1057000040EA727070474FF0FF0C4CF4E06C1CEAFA
:1057100011531CBF9CEA030C9445C2BFDA4201EB53
:1057200002517047002B0DD0BCF1000F0FD0002AA2
:1057300001F00041A4BF41F0E04141F07F614FF032
:105740000000704701F000414FF00000704750EA40
:1057500001334FF09B0C18BF4CF0806C7FF464ADAC
:105760007047FBF7B5BAFCF75BB8FCF7E5B91CF47A
:10577000801F11D01CF4E02F03D06FEACC31490018
:1057800070474FF04050EFF3008222F0704242EA3F
:10579000000282F3008870474FF00000704700005D
:1057A00000000000000001020304060708090000D1
:1057B00000000102030404000008000000000000D3
:1057C000000200010000100002400000000000A0E4
:1057D0000000000005400000000000C800000000BC
:1057E0000C4000000000409C000000001940000038
:1057F0000020BCBE0000000034400000BFC91B8E6A
:1058000000000004B5400000504BCFD06607E2CF47
:10581000010000006C4100003E8251AADFEEA73477
:1058200001000000D9420000DCB5A0E23A301F9729
:10583000FFFFFFFFB4450000FD25A0C8E9A3C14F4D
:10584000FFFFFFFFFF3F000000000080000000009E
:10585000FF3F000000000080000000003A74740068
:105860003A7474003A747400BC59000800000020B7
:105870004C000000C4010008085A00084C00002039
:10588000B40A0000E0010008000000000000F07F02
:105890001C00000043000000F8FFFFFF0C000000A8
:1058A0000E0000000F0000002E000000100100009C
:1058B00043000000F8FFFFFF0040404040404040F0
:1058C00040404141414141404040404040404040D3
:1058D0004040404040404040400502020202020277
:1058E00002020202020202020220202020202020C6
:1058F00020202002020202020202909090909090DA
:105900001010101010101010101010101010101097
:10591000101010100202020202028888888888880B
:1059200008080808080808080808080808080808F7
:1059300008080808020202024000000000000000FF
:105940000000000000000000000000000000000057
:105950000000000000000000000000000000000047
:105960000000000000000000000000000000000037
:105970000000000000000000000000000000000027
:105980000000000000000000000000000000000017
:105990000000000000000000000000000000000007
:1059A00000000000000000000000000000000000F7
:1059B00000000000000000000000000000000000E7
:1059C00001000000000000000000000000000000D6
:1059D00000000000000000000000000000000000C7
:1059E00000000000000000000000000001000000B6
:1059F00010000000000000000024F400000000007F
:085A000000000000000000009E
:040000050800018965
:00000001FF
